:020000040800F2
:10000000800F002029020008D90900084B090008C8
:10001000D509000835030008F11A000800000000A7
:10002000000000000000000000000000350C000887
:100030001704000800000000570A000879110008A2
:10004000430200084302000843020008430200087C
:10005000430200084302000843020008430200086C
:10006000430200084302000843020008430200085C
:10007000430200084302000843020008430200084C
:10008000430200084302000843020008430200083C
:10009000430200084302000843020008430200082C
:1000A000430200084302000843020008430200081C
:1000B00043020008430200086112000843020008DE
:1000C00043020008430200084302000843020008FC
:1000D000430200088D150008951500089D150008BD
:1000E00043020008430200084302000843020008DC
:1000F00043020008430200084302000843020008CC
:1001000043020008430200084302000843020008BB
:100110007D150008851500084302000899120008A3
:10012000430200084302000843020008430200089B
:10013000430200084302000843020008430200088B
:10014000430200084302000843020008430200087B
:10015000430200084302000843020008A5150008F6
:10016000430200084302000843020008430200085B
:10017000430200084302000843020008430200084B
:10018000430200084302000800F002F800F03CF8C7
:100190000AA090E8000C82448344AAF10107DA45E2
:1001A00001D100F031F8AFF2090EBAE80F0013F0F8
:1001B000010F18BFFB1A43F001031847201E00006F
:1001C000401E0000103A24BF78C878C1FAD8520700
:1001D00024BF30C830C144BF04680C6070470000C1
:1001E0000023002400250026103A28BF78C1FBD840
:1001F000520728BF30C148BF0B6070471FB501F0E0
:10020000E7FE1FBD10B510BD00F031F81146FFF735
:10021000F5FF01F0CFFE00F04FF803B4FFF7F2FF57
:1002200003BC00F057F80000094880470948004720
:10023000FEE7FEE7FEE7FEE7FEE7FEE7FEE7FEE796
:10024000FEE7FEE704480549054A064B70470000F3
:10025000A51100088901000880090020800F0020F6
:10026000800B0020800B0020704770477047754658
:1002700000F02CF8AE4605006946534620F0070012
:10028000854618B020B5FFF7DDFFBDE820404FF0F0
:1002900000064FF000074FF000084FF0000B21F070
:1002A0000701AC46ACE8C009ACE8C009ACE8C0093D
:1002B000ACE8C0098D46704710B50446AFF3008026
:1002C0002046BDE81040FFF7A8BF00000048704777
:1002D0002009002001491820ABBEFEE726000200DD
:1002E00070470246002002E00B5C1354401C1428A7
:1002F000FADD70471CB50121202000F0ADFB4FF462
:100300008070009001208DF8040000208DF8060018
:1003100003208DF8050002208DF807006946044887
:1003200000F0A0FA4FF48071014800F008FB1CBDFA
:100330000014024000BFFEE770B500262B4840784D
:10034000012807D029484078022803D02748407860
:1003500003280BD125480078012803D023480078D2
:10036000022803D121484578047801E000250024C3
:100370004FF480711E4800F0E2FA1DE04FF48071E6
:100380001B4800F0DAFA4FF4C061194800F0D9FABE
:100390004FF4FA7001F094FC4FF48071144800F0AF
:1003A000CEFA4FF4C061124800F0CBFA4FF4FA7065
:1003B00001F086FC701CC6B2AE42DFDB4FF48071E8
:1003C0000B4800F0BCFA4FF4C061094800F0B7FADE
:1003D000012C04D16102064800F0AFFA05E0022CBE
:1003E00003D16102024800F0A8FA70BD2900002084
:1003F0000014024010B502460B46002107E0505C95
:100400005C5CA04201D1491C01E0012010BD14290F
:10041000F5DD0020FAE7704710B58AB0044606A85B
:1004200001F022FA0121102000F046FB01210846CC
:1004300000F012FB25208DF80C0003208DF80D0034
:1004400000208DF80E0001208DF80F0003A800F0A9
:10045000C5FA072209212E4800F04CFA07220A218A
:100460002B4800F047FA4FF40070019002208DF8FD
:1004700008008DF8090000208DF80A0001208DF891
:100480000B0001A9224800F0EDF94FF480600190C3
:1004900002208DF808008DF8090001208DF80A006F
:1004A00000208DF80B0001A9194800F0DBF919486C
:1004B00001F0A8F806940020ADF81C00ADF81E006D
:1004C000ADF82000ADF824000C20ADF8220000208B
:1004D000ADF81000ADF812004FF40070ADF8140044
:1004E0000020ADF8160006A90A4801F053F904A946
:1004F000084801F06AF8012240F22551054801F050
:1005000023F90121034801F070F80AB010BD000082
:10051000000002400010014070B505460E46002460
:100520000AE0295D0B4802780078401C094B1870DE
:1005300009488154601CC4B2B442F2DB0748808988
:1005400000F0800028B9012240F22771034801F031
:10055000FBF870BD3B000020C800002000100140E7
:1005600010B58AB0044606A801F07EF901214804BE
:1005700000F082FA0121082000F06EFA26208DF8A2
:100580000C0004208DF80D0001208DF80E008DF870
:100590000F0003A800F022FA072205212B4800F0E3
:1005A000A9F907220621294800F0A4F9202001908A
:1005B00002208DF808008DF8090000208DF80A004F
:1005C00001208DF80B0001A9204800F04BF94020D4
:1005D000019002208DF808008DF8090001208DF8A7
:1005E0000A0000208DF80B0001A9184800F03AF924
:1005F00006940020ADF81C00ADF81E00ADF82000F8
:10060000ADF824000C20ADF822000020ADF8100059
:10061000ADF812004FF40070ADF814000020ADF8F2
:10062000160006A90A4801F0B5F804A9084800F028
:10063000CCFF012240F22551054801F085F8012147
:10064000034800F0D2FF0AB010BD0000000C0240C9
:100650000044004010B58AB0044606A801F004F931
:100660000121880400F008FA0121022000F0F4F9C9
:1006700027208DF80C0002208DF80D0000208DF849
:100680000E0001208DF80F0003A800F0A7F9072243
:100690000A212C4800F02EF907220B21294800F0EE
:1006A00029F94FF48060019002208DF808008DF840
:1006B000090000208DF80A0001208DF80B0001A927
:1006C000204800F0CFF84FF40060019002208DF830
:1006D00008008DF8090001208DF80A0000208DF82F
:1006E0000B0001A9174800F0BDF806940020ADF8F2
:1006F0001C00ADF81E00ADF82000ADF824000C2061
:10070000ADF822000020ADF81000ADF812004FF453
:100710000070ADF814000020ADF8160006A90A48D4
:1007200001F038F804A9084800F04FFF012240F218
:100730002551054801F008F80121034800F055FF54
:100740000AB010BD000402400048004010B501F09E
:10075000F9FA01F02BFB01F05DFB01F08FFB01F0DA
:10076000C1FB01F0F3FB10BD07484078132809D105
:10077000012006490870044880780549087002483D
:10078000C0784870704700008C0000202B000020CB
:100790002900002010B504462D482E4909784454FC
:1007A0002C48007858B9AA2C05D12A480078401C5A
:1007B0002849087049E000202649087045E025488E
:1007C0000078012810D1132C08D122480078401C51
:1007D0002049087001202049087010BD00201D49E3
:1007E00008701D490870F8E71A48007802282CDBC9
:1007F00019480078012828D116480078032805DC1C
:1008000014480078401C134908701EE01148007815
:1008100004281AD1FF2C05D000200E4908700E497B
:10082000087012E00A490D48FFF7E4FD18B10120F5
:100830000B49087002E0002009490870FFF794FF97
:100840000020044908700449087000BFC5E7000093
:100850008C0000202D0000202E000020A000002091
:100860002C000020F0B50A4600210023002400BF20
:100870003DE0012505FA01F3156805EA03049C42F1
:1008800034D105684F000326BE40B5430560157995
:100890004E00B5400668354305601579012D02D03C
:1008A0001579022D16D185684F000326BE40B54349
:1008B000856055794E00B54086683543856045684A
:1008C00001268E40B5434560456896798E40B6B2A4
:1008D00035434560C5684F000326BE40B543C5603B
:1008E000D5794E00B540C6683543C560491C10290E
:1008F000BFD3F0BDF0B5002300244D07ED0E02FA82
:1009000005F3CE1000F1200555F826504E07F70EDE
:100910000F26BE40B543CF1000F1200646F8275001
:10092000CE1000F1200555F8265045EA0304CE10FC
:1009300000F1200545F82640F0BD41837047018352
:10094000704742694A404261704700BFFEE70000BD
:100950001CB50121112000F07FF81020009000202C
:100960008DF8040003208DF8050002208DF80700A3
:1009700069460648FFF776FF0120009002208DF8B7
:10098000070069460248FFF76DFF1CBD00100240DA
:10099000000002401CB50121202000F05DF84FF45A
:1009A000C060009001208DF8040000208DF8060042
:1009B00003208DF8050001208DF8070069460448E2
:1009C000FFF750FF4FF4C0610148FFF7B8FF1CBDAF
:1009D0000014024000BFFEE77047000070B5002120
:1009E00000230F22C4781CB3174C246804F4E0647D
:1009F000C4F5E064C4F30721C1F10404E3B20A4181
:100A000044789C40E1B28478144021430C07210EC5
:100A10000E4C05786155047804F01F050124AC40A4
:100A200005786D11AD0005F1E025C5F8004109E03C
:100A3000047804F01F050124AC40054D06787611BA
:100A400045F8264070BD00000CED00E000E400E039
:100A500080E100E07047704729B1064A12680243FE
:100A6000044B1A6004E0034A12688243014B1A6087
:100A7000704700003038024029B1064A126802432C
:100A8000044B1A6004E0034A12688243014B1A6067
:100A9000704700004038024029B1064A12680243FC
:100AA000044B1A6004E0034A12688243014B1A6047
:100AB000704700002038024029B1064A12680243FC
:100AC000044B1A6004E0034A12688243014B1A6027
:100AD000704700004438024029B1064A12680243B8
:100AE000044B1A6004E0034A12688243014B1A6007
:100AF0007047000024380240F0B500210022002495
:100B0000022500260223324F3F6807F00C0121B175
:100B1000042905D0082937D105E02E4F076036E0BB
:100B20002D4F076033E02A4F3F1F3F68C7F38056C1
:100B3000274F3F1F3F6807F03F036EB1264FB7FBBB
:100B4000F3F7DFF88CC0ACF1040CDCF800C0CCF398
:100B5000881C07FB0CF40CE01E4FB7FBF3F7DFF823
:100B600070C0ACF1040CDCF800C0CCF3881C07FBAF
:100B70000CF4174F3F1F3F68C7F301477F1C7D00F0
:100B8000B4FBF5F7076002E0124F076000BF00BF3B
:100B90000F4F3F6807F0F0010909104F7A5C0768B2
:100BA000D74047600A4F3F6807F4E051890A0B4F6E
:100BB0007A5C4768D7408760054F3F6807F460411B
:100BC000490B064F7A5C4768D740C760F0BD00000C
:100BD000083802400024F40000127A00520000207D
:100BE0003EB5044601212020FFF746FF104800F0E3
:100BF00081FB01945320ADF800000020ADF80800FF
:100C0000ADF8020069460A4800F076FC0121084868
:100C100000F05EFB01221146054800F044FC012172
:100C2000034800F05BFB00212020FFF725FF3EBDBD
:100C300000140040704700000E484078102804D18E
:100C40000C4880780C49087013E00A484078112855
:100C500007D10848C07809490870064800794870EB
:100C600007E004484078122803D1024880780449FC
:100C7000087070476400002023000020240000203A
:100C80002600002010B5044663486449097844549E
:100C90006248007858B9AA2C05D160480078401CF9
:100CA0005E490870B5E000205C490870B1E05B481F
:100CB0000078012826D1102C08D158480078401C13
:100CC0005649087001205649087010BD112C08D1F2
:100CD00052480078401C5149087002205049087061
:100CE000F3E7122C08D14D480078401C4B4908709E
:100CF00003204B490870E8E700204849087048493C
:100D00000870E2E7454800780228CBDB44480078C9
:100D1000012827D141480078022805DC3F480078A7
:100D2000401C3E49087074E03C480078032870D1AC
:100D3000FF2C03D00020394908706AE03649394851
:100D4000FFF758FB18B101203749087002E0002076
:100D500035490870FFF770FF0020304908703049AE
:100D6000087056E02E480078022827D12B480078DA
:100D7000042805DC29480078401C2849087048E010
:100D800026480078052844D1FF2C03D000202349B1
:100D900008703EE020492348FFF72CFB18B10120E2
:100DA0002149087002E000201F490870FFF744FF46
:100DB00000201A4908701A4908702AE0184800787B
:100DC000032826D115480078022805DC134800784E
:100DD000401C124908701CE010480078032818D104
:100DE000FF2C03D000200D49087012E00A490D487D
:100DF000FFF700FB18B101200B49087002E000204A
:100E000009490870FFF718FF0020044908700449D9
:100E1000087000BF59E70000640000202700002090
:100E200028000020780000202200002010B569482A
:100E3000007801281DD16848007830B14FF4FA706D
:100E400000F03EFF002064490870642000F038FF85
:100E5000624840786249C8706048807808715F488D
:100E6000C07848715D480079887108215C48FFF7B7
:100E700053FB5C484078122818D15B480078012861
:100E800014D15A48007888B959480078012807D108
:100E9000FFF752FA0020564908705349087005E0E0
:100EA0005348007810B90120514908704F48007824
:100EB000012848D14B484078102845D14D4800784A
:100EC0004D49887004214C48FFF726FB0020474914
:100ED000087044488078032803D04248807804286A
:100EE00005D101203B4908703B49087027E03D4887
:100EF0008078022820D10020364908703F48807849
:100F0000012803D03D488078022811D13B48C078A1
:100F1000012807D03948C078022803D03748C07864
:100F2000032805D1FFF708FA00203049087006E0D1
:100F300001202E49087002E0002026490870294946
:100F40002F48FFF7CEF943E026484078112817D103
:100F50002448C0782B49C8702248007908710621BE
:100F60002848FFF7D9FA00202049087001201949C4
:100F70000870194908701B492148FFF7B2F927E0AA
:100F800018484078122823D1174800781E498870E5
:100F900004211D48FFF7C0FA0020144908701248C8
:100FA0000078022805D101200A4908700A49087012
:100FB0000AE00D480078012806D100200549087094
:100FC0000E491248FFF78DF906490D48FFF789F9D8
:100FD00010BD00001F000020200000202F00002076
:100FE00014000020640000202600002022000020C1
:100FF0002100002023000020100000208C00002091
:1010000078000020060000200C000020A000002036
:101010003EB5044601210420FFF72EFD104800F0E4
:1010200069F901945320ADF800000020ADF80800E4
:10103000ADF8020069460A4800F05EFA012108484E
:1010400000F046F901221146054800F02CFA012172
:10105000034800F043F900210420FFF70DFD3EBDD9
:10106000000800400CB50020019000903448006852
:1010700040F480303249086000BF3148006800F415
:10108000003000900198401C0190009818B9019818
:10109000B0F5A04FF1D12A48006800F4003010B13B
:1010A0000120009001E0002000900098012846D126
:1010B00023484030006840F08050214940310860AA
:1010C0002048006840F440401E4908601C48083031
:1010D00000681B49083108600846006840F4004079
:1010E00008600846006840F4A05008601648091FD0
:1010F0000860081F006840F08070091F086000BF8A
:101100000F48006800F000700028F9D040F2057028
:101110000E4908600A480830006820F003000849BA
:10112000083108600846006840F00200086000BF0F
:1011300003480830006800F00C000828F8D10CBD06
:10114000003802400070004008544007003C024054
:10115000042808D14FF0E021096941F004014FF063
:10116000E022116107E04FF0E021096921F004015C
:101170004FF0E02211617047704710B54FF47A705C
:10118000FFF72EFD4FF47A70FFF742FF00F094F95D
:1011900001212020FFF770FC01210420FFF76CFCE7
:1011A00010BD000010B51548006840F470001349E8
:1011B00008601348006840F00100114908600020F1
:1011C0000F49083108600E4800680E4908400C4974
:1011D00008600D48091D0860081F006820F4802081
:1011E000091F0860002006490C310860FFF73AFF2C
:1011F0004FF0006001498039086010BD88ED00E0C3
:1012000000380240FFFFF6FE1030002410B54FF406
:10121000806101F00702104B18684FF6FF03184079
:101220000E4B034343EA02200B4B186000BFFFF74D
:10123000A4FF4FF46120FFF7EFF84FF4E130FFF720
:101240008FF94FF4E130FFF705FAFFF7A3FBFFF743
:1012500051F8FFF77DFB10BD0CED00E00000FA0532
:1012600010B501210A4800F00DF980B101210848AC
:1012700000F031F8074801880088401C054A1080BA
:101280001E2904DD002011460880FFF7CFFD10BDA8
:10129000000800400200002010B501210A4800F0BB
:1012A000F1F880B10121084800F015F807480188DD
:1012B0000088401C054A1080142904DDFFF746FA17
:1012C00000200249088010BD0014004004000020E6
:1012D000CA4302827047CA430282704721B1028822
:1012E00042F00102028004E002884FF6FE731A40C9
:1012F0000280704710B504465548844208D1012148
:101300000846FFF7E9FB00210120FFF7E5FB9DE020
:10131000B4F1804F08D101210846FFF7BDFB002141
:101320000120FFF7B9FB91E04A48844208D101212E
:101330000220FFF7B1FB00210220FFF7ADFB85E0A3
:101340004548844208D101210420FFF7A5FB002174
:101350000420FFF7A1FB79E04048844208D1012135
:101360000820FFF799FB00210820FFF795FB6DE0AF
:101370003B48844208D101211020FFF78DFB00215A
:101380001020FFF789FB61E03648844208D1012133
:101390002020FFF781FB00212020FFF77DFB55E097
:1013A0003148844208D101210220FFF795FB00213A
:1013B0000220FFF791FB49E02C48844209D101212A
:1013C0000804FFF789FB00214FF48030FFF784FB0E
:1013D0003CE02748844209D101214804FFF77CFB07
:1013E00000214FF40030FFF777FB2FE021488442C3
:1013F00009D101218804FFF76FFB00214FF4802001
:10140000FFF76AFB22E01C48844208D101214020FA
:10141000FFF742FB00214020FFF73EFB16E0174894
:10142000844208D101218020FFF736FB0021802073
:10143000FFF732FB0AE01248844207D101218015F0
:10144000FFF72AFB0021A015FFF726FB10BD0000C7
:10145000000001400004004000080040000C004073
:101460000010004000140040000401400040014012
:10147000004401400048014000180040001C0040AA
:101480000020004030B50246002000230024158AC9
:1014900005EA0103958905EA010413B10CB10120A5
:1014A00000E0002030BD1AB183890B43838102E044
:1014B00083898B438381704708B537208DF80000FE
:1014C00007208DF8010001208DF802008DF803003F
:1014D0006846FFF783FA1E208DF8000007208DF87C
:1014E000010002208DF8020001208DF803006846FB
:1014F000FFF774FA08BD000000220288184B9842DA
:101500000ED0184B98420BD0B0F1804F08D0164B3C
:10151000984205D0154B984202D0154B984204D101
:101520004FF68F731A404B881A43124B984207D0DC
:10153000114B984204D04FF6FF431A400B891A43CF
:1015400002804B68C3620B880385054B984202D02A
:10155000044B984201D18B7A038601238382704722
:101560000000014000040140000400400008004069
:10157000000C0040001000400014004010B500F0C6
:10158000EFF910BD10B500F02FFA10BD10B500F046
:10159000B1FA10BD10B500F0EDFA10BD10B500F0B5
:1015A0002DFB10BD10B500F05FFA10BD10B5002284
:1015B000002340F66A14A14200D100BF0A120124A0
:1015C0009440A3B2DC43048010BD10B50246002055
:1015D000108A20F470600B884C8823438C88234346
:1015E000CC8823431843108210BD21B1828942F474
:1015F0000052828104E082894DF6FF731A40828195
:101600007047000010B504463248844208D10121D9
:101610001020FFF761FA00211020FFF75DFA57E074
:101620002D48844209D101214804FFF735FA0021F1
:101630004FF40030FFF730FA4AE02848844209D1DD
:1016400001218804FFF728FA00214FF48020FFF7DA
:1016500023FA3DE02248844209D10121C804FFF762
:101660001BFA00214FF40020FFF716FA30E01D4866
:10167000844209D101210805FFF70EFA00214FF439
:101680008010FFF709FA23E01748844208D10121AE
:101690002020FFF721FA00212020FFF71DFA17E094
:1016A0001248844209D101218807FFF7F5F900218A
:1016B0004FF08040FFF7F0F90AE00D48844207D16F
:1016C00001214005FFF7E8F900216005FFF7E4F983
:1016D00010BD0000001001400044004000480040E0
:1016E000004C0040005000400014014000780040D1
:1016F000007C004070B50246002400230025002035
:1017000040F66A16B14200D100BFC1F3421501F0A4
:101710001F03012606FA03F3012D02D196893340F7
:1017200006E0022D02D1168A334001E0968A33404A
:101730000C12012606FA04F41688344013B10CB1D9
:10174000012000E0002070BDF0B503460024002613
:101750000025002040F66A17B94200D100BF1846A4
:10176000C1F3421401F01F06012707FA06F5012C08
:1017700001D10C3004E0022C01D1103000E0143013
:101780001AB107682F43076002E00768AF4307609C
:10179000F0BD00002DE9FF4705460E460024A14696
:1017A00000BFA046B08900B100BF2C8A24F4405489
:1017B000F08804432C82AC8941F20C608443B088E9
:1017C00031890843718908430443AC81AC8A24F40D
:1017D0004074B0890443AC826846FFF78DF9204815
:1017E000854202D01F48854202D1DDF80C9001E00D
:1017F000DDF80890A88900F4004040B109EBC90069
:1018000000EB091031684900B0FBF1F707E009EB84
:10181000C90000EB091031688900B0FBF1F76420C2
:10182000B7FBF0F004012009642101FB1078A889BE
:1018300000F4004040B1322000EBC800B0FBF1F0F2
:1018400000F00700044308E0322000EB0810642198
:10185000B0FBF1F000F00F0004432C81BDE8FF87DE
:1018600000100140001401404FF4165101600021A6
:101870008180C18001810C214181002181817047DB
:101880000948407812280ED10120084908700648FE
:10189000807848700448C078887003480079C87020
:1018A0000148407908717047B40000202F000020E3
:1018B00010B504462748284909784454264800783A
:1018C00058B9AA2C05D124480078401C2249087038
:1018D0003DE000202049087039E01F4800780128C9
:1018E00010D1122C08D11C480078401C1A490870ED
:1018F00001201A49087010BD0020174908701749C7
:101900000870F8E714480078022820DB13480078B4
:1019100001281CD110480078052805DC0E48007805
:10192000401C0D49087012E00B48007806280ED1C3
:10193000FF2C05D00020084908700849087006E00F
:10194000FFF79EFF0020044908700449087000BF9B
:10195000D1E70000B4000020340000203500002052
:1019600010B51D48008800F0080018B11A48001D85
:101970000088C4B240F225511748FFF7BBFE58B1AA
:1019800040F225511448FFF711FE1348001D00884E
:10199000C4B2204600F092FA40F227710E48FFF7D9
:1019A000A9FEC0B10D4801780078401C0B4A1070A8
:1019B0000B48405C0849091D088010460078094919
:1019C0000978884207D104480C30008820F0800054
:1019D00001490C31088010BD004C00404600002039
:1019E000F40400204700002010B51B48008800F0D8
:1019F000080010B118488088C4B240F2255116483A
:101A0000FFF778FE50B140F225511348FFF7CEFDA5
:101A100011488088C4B2204600F084FA40F2277151
:101A20000D48FFF767FEA8B10C4801780078401C0C
:101A30000A4A10700A48405C0749888010460078BE
:101A400008490978884205D10348808920F0800040
:101A50000149888110BD0000005000404A0000206C
:101A6000580600204B00002010B51D48008800F0EB
:101A7000080018B11A48001D0088C4B240F2255170
:101A80001748FFF737FE58B140F225511448FFF7C9
:101A90008DFD1348001D0088C4B2204600F076FA80
:101AA00040F227710E48FFF725FEC0B10D480178BE
:101AB0000078401C0B4A10700B48405C0849091D17
:101AC00008801046007809490978884207D10448FF
:101AD0000C30008820F0800001490C31088010BDD6
:101AE000001401404E000020BC0700204F000020E1
:101AF00000BFFEE710B51B48008800F0080010B1D9
:101B000018488088C4B240F225511648FFF7F2FD0C
:101B100050B140F225511348FFF748FD1148808825
:101B2000C4B2204600F02EF940F227710D48FFF7AD
:101B3000E1FDA8B10C4801780078401C0A4A1070F9
:101B40000A48405C074988801046007808490978AF
:101B5000884205D10348808920F0800001498881AE
:101B600010BD0000001001403A000020C800002015
:101B70003B00002010B51D48008800F0080018B197
:101B80001A48001D0088C4B240F225511748FFF7DB
:101B9000B1FD58B140F225511448FFF707FD134835
:101BA000001D0088C4B2204600F020F940F22771E1
:101BB0000E48FFF79FFDC0B10D4801780078401C2A
:101BC0000B4A10700B48405C0849091D08801046FC
:101BD000007809490978884207D104480C30008808
:101BE00020F0800001490C31088010BD0044004005
:101BF0003E0000202C0200203F00002010B51D48B0
:101C0000008800F0080018B11A48001D0088C4B20E
:101C100040F225511748FFF76DFD58B140F22551AC
:101C20001448FFF7C3FC1348001D0088C4B22046C7
:101C300000F010F940F227710E48FFF75BFDC0B1CC
:101C40000D4801780078401C0B4A10700B48405C2E
:101C50000849091D0880104600780949097888421A
:101C600007D104480C30008820F0800001490C3175
:101C7000088010BD00480040420000209003002072
:101C80004300002010B504466FF00400FFF760FA2F
:101C9000E11704EB5171C1F3C701074A11701046F7
:101CA000007800EB4001C1EBC0104FF6FF7101EA74
:101CB000C0000249088010BD360000203800002016
:101CC00070B504464FF4077094FBF0F0C6B24FF4C1
:101CD000077094FBF0F100FB114085B205E04FF472
:101CE000077000F009F8701EC6B2002EF7D115B1CA
:101CF000284600F001F870BD0146114A12884A4397
:101D00004FF0E0235A6100229A611A46126942F0AC
:101D100001021A6100BF4FF0E022106900F00102D9
:101D20001AB100F48032002AF5D04FF0E022126997
:101D300022F001024FF0E0231A6100229A617047FD
:101D40003800002010B510E00B490A780978491CCA
:101D5000094B19700949885CFEF71CFD064800789C
:101D6000642802DB00200449087005480078024915
:101D700009788842E8D110BD3D000020C80100204C
:101D80003C00002007490A780978491C054B197066
:101D90000549885419460978642902DB00211A464E
:101DA000117070473C000020C801002010B510E001
:101DB0000B490A780978491C094B19700949885C54
:101DC000FEF760FF06480078642802DB0020044923
:101DD000087005480078024909788842E8D110BDAA
:101DE000410000202C0300204000002007490A7811
:101DF0000978491C054B197005498854194609781A
:101E0000642902DB00211A4611707047400000204F
:101E10002C03002010B510E00B490A780978491C02
:101E2000094B19700949885CFFF742FD06480078A4
:101E3000642802DB00200449087005480078024944
:101E400009788842E8D110BD4500002090040020A8
:101E50004400002007490A780978491C054B19708D
:101E60000549885419460978642902DB00211A467D
:101E700011707047440000209004002000B510E06D
:101E80000B490A780978491C094B19700949885C83
:101E9000FEF7E0FD06480078642802DB00200449D4
:101EA000087005480078024909788842E8D100BDE9
:101EB00049000020F40500204800002007490A7866
:101EC0000978491C054B1970054988541946097849
:101ED000642902DB00211A46117070474800002077
:101EE000F405002000B510E00B490A780978491C78
:101EF000094B19700949885CFEF7ACFD064800786B
:101F0000642802DB00200449087005480078024973
:101F100009788842E8D100BD4D0000205807002014
:101F20004C00002007490A780978491C054B1970B4
:101F30000549885419460978642902DB00211A46AC
:101F4000117070474C0000205807002000B510E0C9
:101F50000B490A780978491C094B19700949885CB2
:101F6000FEF778FD06480078642802DB002004496B
:101F7000087005480078024909788842E8D100BD18
:101F800051000020BC0800205000002007490A78BA
:101F90000978491C054B1970054988541946097878
:101FA000642902DB00211A4611707047500000209E
:101FB000BC080020A820FFF765FEFFF727F94FF4C3
:101FC000C0610248FEF7BBFC00BFFEE70014024000
:101FD0004FF04070E1EE100A70470000FC1F00084F
:101FE0000000002064000000C40100086020000818
:101FF000640000201C0F0000E001000855000000F4
:102000000000AA11010000FFAA1200FFAA1001FFA0
:10201000AA130100000000FFFFFFFF000000010005
:1020200000000000000000000000000000000000B0
:1020300000000000000000000000000000000000A0
:102040000000000000000000000000000000000090
:10205000000001020304010203040607080900004E
:040000050800018965
:00000001FF
