:020000040800F2
:10000000501B002005550008953F00080F550008BB
:10001000973F00089B3F00089F3F0008000000003A
:10002000000000000000000000000000A33F0008E6
:10003000A53F0008000000001B550008754000089F
:100040001F5500081F5500081F5500081F550008C0
:100050001F5500081F5500081F5500081F550008B0
:100060001F5500081F5500081F5500081F550008A0
:100070001F5500081F5500081F5500081F55000890
:100080001F5500081F5500081F5500081F55000880
:100090001F5500081F5500081F550008A73F0008FE
:1000A0001F5500081F5500081F5500081F55000860
:1000B0001F550008B93F0008C13F00081F55000840
:1000C0001F5500081F5500081F5500081F55000840
:1000D0001F550008DD3F0008E53F0008ED3F000820
:1000E0001F5500081F5500081F5500081F55000820
:1000F0001F5500081F5500081F5500081F55000810
:100100001F5500081F5500081F5500081F550008FF
:10011000F53F0008FD3F00081F550008C33F0008D9
:100120001F5500081F5500081F5500081F550008DF
:100130001F5500081F5500081F5500081F550008CF
:100140001F5500081F5500081F5500081F550008BF
:100150001F5500081F5500081F55000805400008DE
:100160001F5500081F5500081F5500081F5500089F
:100170001F5500081F5500081F5500081F5500088F
:100180001F5500081F550008DFF80CD00DF0D6FBF6
:1001900000480047A1010008501B002000BFFEE7F7
:1001A00003F060F843F2C82003F09CFF022002F045
:1001B00020F84FF4FA6003F095FF0020034908701F
:1001C00000F0A2F901E000F0C5F9FCE70000002012
:1001D00010B5F3480078012810D1F249097801F1EF
:1001E0000900C11700EB5171C910A0EBC101ED4A24
:1001F0001170ED491278885C05F062F9E8480078E2
:1002000002280FD1E7490978C81DC11700EB5171C9
:10021000C910A0EBC101E34A1170E3491278885C70
:1002200005F04EF910BD10B5E0480078C0B1E048C7
:100230000078AA2802DDA020DD490870DD48017F92
:10024000DB48007802F044FBBDEEC00A10EE100A55
:1002500000B2D94908800846B0F9000001F070FFEB
:1002600010BD10B5D5480078E8B3D5480078D0B3B4
:10027000D348B0F90410002002F042FBF1EE400A2E
:10028000CC4890ED070AB8EE400A20EE800AF0EE66
:10029000000A80EE201ABDEEC10A10EE100A00B26C
:1002A000C8490880C648B0F90210002002F040FB9F
:1002B000C048D0ED070AF8EE600A20EE200AF0EE02
:1002C000000A80EE201ABDEEC10A10EE100A00B23C
:1002D000BD490880BB48B0F9000001F00FFFBA48E3
:1002E000B0F9000000E001E001F019FFB748007824
:1002F00090B3B748007878B3B548B0F90210B54864
:10030000B0F9000002F0FCFADFEDB30A20EE200A9B
:10031000BDEEC00A10EE100A00B2AA490880AC482F
:10032000B0F90410AD48B0F9000002F001FBDFEDB8
:10033000AA0A20EE200ABDEEC00A10EE100A00B292
:10034000A14908809F48B0F9000001F0D7FE9E48FF
:10035000B0F9000001F0E3FEA1480078E8B3A1483D
:100360000078D0B39F48B0F90610002002F0C8FA18
:10037000F1EE400A8F4890ED070AB8EE400A20EEF1
:10038000800AF2EE000A80EE201ABDEEC10A10EEDD
:10039000100A00B28B4908809248B0F9041000207E
:1003A00002F0C6FA8348D0ED070AF8EE600A20EEA4
:1003B000200AF2EE000A80EE201ABDEEC10A10EE0D
:1003C000100A00B2804908807E48B0F9000001F0B0
:1003D00095FE7D48B0F9000000E001E001F09FFECD
:1003E00081480078C8B381480078B0B300206F49D5
:1003F00008707348B0F90410002002F081FAF1EEA1
:10040000400A6C4890ED070AB8EE400A20EE800AD8
:10041000BDEEC00A10EE100A00B2674908806848B5
:10042000B0F90210002002F083FA6248D0ED070A0A
:10043000F8EE600A20EE200ABDEEC00A10EE100AA7
:1004400000B2614908805C48B0F9000001F078FE14
:100450005D48B0F9000001F062FE10BD704710B5B4
:100460006348007830B1012807D0022808D003285B
:100470000CD108E000F00BF909E000F00CF906E0FF
:1004800000F0EEFB03E000F02FFF00E000BF00BF34
:1004900010BD5848007830B15748006880F04000DF
:1004A0005549086003E040205349891D088053489E
:1004B000007801280AD14E480078012806D0002093
:1004C0004E49087001204A4908701CE04B480078EA
:1004D00002280AD146480078022806D00020474961
:1004E00008700220424908700DE044480078032853
:1004F00009D13F480078032805D000203F49087003
:1005000003203B4908707047002000BF1FE000EB4C
:1005100040013B4A02EB810189884FF47A7292FBD9
:10052000F1F100EB4002364B03EB8202D18000EB8D
:1005300040011A4602EB8101C988012905DA01212F
:1005400000EB400203EB8202D180411CC8B20628B6
:10055000DDD3704770B5002400BF1EE003F094FDAA
:10056000054604EB4400264901EB80008068281A08
:1005700004EB4401224A02EB8101C98888420AD374
:1005800004EB4400114601EB8000856004EB44015C
:1005900052F821008047601CC4B2062CDED370BD27
:1005A0004C0200204D02002044020020590000208F
:1005B000580000203C0B0020060000205A000020BC
:1005C000EC01002004000020020000205C0000205C
:1005D0000E02002060000020000020426200002087
:1005E0005D000020F8010020F20100205E000020E4
:1005F00000000020640000201408024006020020D1
:100600000C00002010B50446601C00EBD0710122E4
:10061000B2EB610F03D10221FE4804F05CFC601CC8
:1006200000EBD0710222B2EB610F03D10221FA4834
:1006300004F051FC601C00EBD0710322B2EB610F9F
:1006400003D10221F54804F046FC601C00EBD07198
:100650000422B2EB610F03D10221F14804F03BFC0C
:10066000601C00EBD0710522B2EB610F03D10221B7
:10067000EC4804F030FC601C00EBD0710622B2EBB9
:10068000610F03D10221E84804F025FC10BD0120D0
:10069000E6490870704710B52DED028BE4480078EC
:1006A00013287DD2DFE800F00A19364F87BAD8FD4B
:1006B000FCFBFAF9F8F7F6F5F4F3F200DD48007800
:1006C00050B101F05EFDDA480078401CD84908704E
:1006D00003F0DAFCD8490860BEE203F0D5FCD64945
:1006E0000968401A41F28831884212D39620D349D2
:1006F00008700120D24908700221D24804F0EBFBB7
:10070000CB480078401CCA49087003F0BDFCCA49B8
:100710000860A1E203F0B8FCC7490968401A41F239
:10072000883188420ED3C848007858B10120C749A3
:100730000870BF480078401CBD49087003F0A4FC55
:10074000BD49086088E203F09FFCBB490968401A74
:1007500041F6583188422DD30020BC49087001F081
:100760000AFD0221BA4804F0B6FB0020B649087021
:10077000B0484078B74901EBC0008088B64908808E
:10078000AC484078B34901EBC000C088B349088049
:100790000120B3490870A7494878FFF733FF00E00C
:1007A00059E2A3480078401CA149087003F06CFC92
:1007B000A149086050E2AB48B0F90200A649B1F97E
:1007C0000010081A00EE900AF8EEE00AB0EE600A97
:1007D00002F002F9B0EE408AA248B0F904009F4945
:1007E000B1F90010081A00EE900AF8EEE00AB0EE37
:1007F000600A02F0F1F838EE000AF3EE0E0AB4EEE9
:10080000E00AF1EE10FA08D889480078401C8849BF
:10081000087003F039FC884908601DE203F034FCDD
:1008200085490968401A40F6B831884213D38E488A
:10083000007880B100208A49087001F095FC012001
:100840008A4908707A480078401C7949087003F09A
:100850001BFC79490860FFE103F016FC7649096842
:10086000401A41F2883188421DD301F07DFC0120FD
:100870007F4908705020714908706D480078401C0D
:100880006B49087003F000FC6B490BE0D2E1B7E163
:1008900078E156E12EE114E1F8E0A5E071E043E0F3
:1008A0001BE001E00860D7E103F0EEFB6249096854
:1008B000401A41F2883188420ED300206C490870FA
:1008C00001205A4908705A480078401C584908705D
:1008D00003F0DAFB58490860BEE103F0D5FB564946
:1008E0000968401A41F2883188421CD300204F49E0
:1008F00008705E49087001F03EFC02215D4804F07A
:10090000C9F90020584908700220594908709620FA
:100910004A49087046480078401C4549087003F071
:10092000B3FB4549086097E103F0AEFB4249096813
:10093000401A41F28831884222D300204C49087085
:100940003C488078434901EBC000808842490880D8
:10095000384880783F4901EBC000C0883F49088093
:1009600001203F49087033498878FFF74BFE304833
:100970000078401C2E49087003F086FB2E49086061
:100980006AE13848B0F902003349B1F90010081A99
:1009900000EE900AF8EEE00AB0EE600A02F01CF8F1
:1009A000B0EE408A2F48B0F904002C49B1F900108C
:1009B000081A00EE900AF8EEE00AB0EE600A02F0C3
:1009C0000BF838EE000AF3EE0E0AB4EEE00AF1EE90
:1009D00010FA08D816480078401C1549087003F032
:1009E00053FB1549086000BF03F04EFB124909682C
:1009F000401A40F6B831884247D31B480078D8B334
:100A000001F0B2FB00201649087001201749087058
:100A1000074832E09100002097000020930000205A
:100A2000990000208F000020950000206400002025
:100A3000A4000020070200205400002058000020DD
:100A40005900002087000020EC0100205A000020FF
:100A500089000020DE0000206000002062000020ED
:100A60005C0000200E020020F80100205D00002044
:100A70004C0200208D00002007E00078401CF64961
:100A8000087003F001FBF5490860E5E003F0FCFAAB
:100A9000F2490968401A41F28831884210D301F0C6
:100AA00063FB0120EE4908705020EE490870EA48C7
:100AB0000078401CE849087003F0E6FAE74908604E
:100AC000CAE003F0E1FAE5490968401A41F28831C9
:100AD00088420ED30020E24908700120E2490870E4
:100AE000DD480078401CDC49087003F0CDFADB4992
:100AF0000860B1E003F0C8FAD8490968401A41F229
:100B0000883188421CD30220D54908700020D6497C
:100B10000870D649087001F02EFB0221D44804F079
:100B2000B9F80020D34908709620CE490870CA4809
:100B30000078401CC849087003F0A6FAC74908604D
:100B40008AE003F0A1FAC5490968401A41F28831E8
:100B5000884216D30020C2490870C7490880C74997
:100B600008800120C64908700221C64804F0B3F984
:100B7000B9480078401CB849087003F085FAB749B5
:100B8000086069E0C0480078C8B3C048B0F9020006
:100B9000B949B1F90010081A00EE900AF8EEE00A1F
:100BA000B0EE600A01F018FFB0EE408AB748B0F925
:100BB0000400B249B1F90010081A00EE900AF8EEEC
:100BC000E00AB0EE600A01F007FF38EE000AF3EE2B
:100BD0000E0AB4EEE00AF1EE10FA10D801F0C4FAF1
:100BE0000020A74908700120A94908709A48007898
:100BF000401C9949087003F047FA984908602BE0B7
:100C000003F042FA95490968401A41F28831884256
:100C10000FD301F0A9FA00209E49087001F0CEFB25
:100C20008D480078401C8C49087003F02DFA8B49E0
:100C3000086011E003F028FA88490968401A41F277
:100C40008831884206D301F0B8FA00209249087032
:100C50008149087000E000BF00BFBDEC028B10BDF1
:100C600010B52DED028B7C48007813286FD2DFE899
:100C700000F00A186F97ACC5F2F1F0EFEEEDECEB77
:100C8000EAE9E8E7E6000221844804F003F8724844
:100C90000078401C7049087003F0F6F96F4908604D
:100CA000F8E274480078002850D072484078012853
:100CB00007D170488078022803D10521784803F0D5
:100CC000F5FE6C484078012807D16A4880780128F1
:100CD00003D10521734803F0E9FE664840780128F6
:100CE00007D164488078032803D105216E4803F0BA
:100CF000DDFE60484078022807D15E4880780228EF
:100D000003D10521664803F0D1FE5A4840780228F5
:100D100007D158488078012803D10521614803F0A4
:100D2000C5FE54484078022807D1524880780328ED
:100D300003D105215C4803F0B9FE47480078401C08
:100D40004549087003F0A0F944490860A2E2A0E216
:100D50005648007818B347484078554908704548C8
:100D60008078544908705248007809780844801EF9
:100D70004000401C504948704D4800784D49097862
:100D80000844801E4000801C4B498870324800781F
:100D9000401C3149087003F077F93049086079E266
:100DA00003F072F92D490968401A42F21071884225
:100DB0000AD301F0E6F928480078401C264908705B
:100DC00003F062F92549086064E203F05DF9234904
:100DD0000968401A40F6B83188420ED3962021495E
:100DE000087001202B4908701B480078401C1A49E4
:100DF000087003F049F9194908604BE203F044F91F
:100E000016490968401A40F6B831884216D32A4874
:100E100040782A4901EBC00080881749088026489D
:100E20004078264901EBC000C088144908800120A1
:100E30001349087020494878FFF7E4FB2AE217E2DB
:100E4000FCE1BDE19BE173E159E13DE1FEE0D0E071
:100E5000A8E08EE072E033E0A400002054000020FF
:100E60004C02002058000020640000205D0000209B
:100E70008D000020F80100206000002062000020AA
:100E80005C00002087000020EC0100200E02002002
:100E90005A00002059000020000000208B00002094
:100EA0006E00002069000020730000201402002062
:100EB00047010020460100200A020020DE00002039
:100EC000F648B0F90200F649B1F90010081A00EE30
:100ED000900AF8EEE00AB0EE600A01F07DFDB0EE97
:100EE000408AEE48B0F90400EE49B1F90010081A42
:100EF00000EE900AF8EEE00AB0EE600A01F06CFD38
:100F000038EE000AF3EE040AB4EEE00AF1EE10FA4D
:100F100013D8E548007880B101F026F90020E349B4
:100F200008700120E2490870E2480078401CE1495D
:100F3000087003F0A9F8E0490860ABE103F0A4F8F9
:100F4000DD490968401A41F28831884210D301F026
:100F50000BF90120D94908705020D9490870D548AB
:100F60000078401CD349087003F08EF8D24908601D
:100F700090E103F089F8D0490968401A41F28831BC
:100F800088420ED30020CD4908700120CD49087059
:100F9000C8480078401CC749087003F075F8C64976
:100FA000086077E103F070F8C3490968401A41F21C
:100FB000883188421CD30020C2490870BC4908709F
:100FC00001F0D9F80221C04803F064FE0020B649C0
:100FD00008700220B94908709620B9490870B548D0
:100FE0000078401CB349087003F04EF8B24908601D
:100FF00050E103F049F8B0490968401A41F28831DC
:10100000884222D30020AD490870B0488078B049AA
:1010100001EBC0008088A2490880AC488078AC49C8
:1010200001EBC000C0889F49088001209F490870DB
:10103000A6498878FFF7E6FA9E480078401C9D494B
:10104000087003F021F89C49086023E19348B0F947
:1010500002009349B1F90010081A00EE900AF8EE68
:10106000E00AB0EE600A01F0B7FCB0EE408A8B48AF
:10107000B0F904008B49B1F90010081A00EE900A8B
:10108000F8EEE00AB0EE600A01F0A6FC38EE000AC5
:10109000F3EE040AB4EEE00AF1EE10FA13D8824837
:1010A000007880B101F060F80020804908700120CC
:1010B0007F4908707F480078401C7E49087002F024
:1010C000E3FF7D490860E5E002F0DEFF7A49096848
:1010D000401A41F28831884210D301F045F80120CE
:1010E0007649087050207649087072480078401C94
:1010F0007049087002F0C8FF6F490860CAE002F04A
:10110000C3FF6D490968401A41F2883188420ED305
:1011100000206A49087001206A4908706548007813
:10112000401C6449087002F0AFFF63490860B1E0F9
:1011300002F0AAFF60490968401A41F288318842EA
:101140001CD302205D49087000205E490870584990
:10115000087001F010F802215B4803F09BFD0020AD
:101160005149087096205649087052480078401C32
:101170005049087002F088FF4F4908608AE002F089
:1011800083FF4D490968401A41F28831884216D3DD
:1011900000204A49087042490880424908800120DD
:1011A0004249087002214B4803F095FE41480078FF
:1011B000401C4049087002F067FF3F49086069E041
:1011C00045480078C8B33548B0F902003449B1F950
:1011D0000010081A00EE900AF8EEE00AB0EE600A7D
:1011E00001F0FAFBB0EE408A2C48B0F904002D491A
:1011F000B1F90010081A00EE900AF8EEE00AB0EE1D
:10120000600A01F0E9FB38EE000AF3EE040AB4EEDE
:10121000E00AF1EE10FA10D800F0A6FF00202349F2
:10122000087001202D49087022480078401C21498F
:10123000087002F029FF204908602BE002F024FF2B
:101240001D490968401A41F2883188420FD300F0E5
:101250008BFF00202249087001F0B0F81548007893
:10126000401C1449087002F00FFF1349086011E098
:1012700002F00AFF10490968401A41F28831884299
:1012800006D300F09AFF002016490870094908703B
:1012900000E000BF00BFBDEC028B10BD0E020020BD
:1012A0006000002062000020F80100205C000020A7
:1012B0005D000020A4000020540000204C0200200B
:1012C00058000020640000208D0000200A02002049
:1012D000DE00002087000020EC0100205A000020E2
:1012E00059000020000000200120014908707047CB
:1012F0004C020020FF20FE4981F84E006421FC488A
:10130000A0F850100121A0F85210FF20F84981F8F0
:1013100080011421F648A0F882110021A0F8841160
:10132000FF20F34981F820010021F148A0F82211A3
:10133000A0F82411FF20EE4981F832010021EC4889
:10134000A0F83411A0F83611FF20E94981F83801DE
:101350000021E748A0F83A11A0F83C11FF20E44929
:1013600081F886010521E248A0F888110021A0F843
:101370008A11FF20DE4981F840050021DC48A0F8F1
:101380004215A0F84415FF20D94981F84C050021E9
:10139000D748A0F84E15A0F85015FF20D44981F881
:1013A000A6053221D248A0F8A8150021A0F8AA1558
:1013B000FF20CF4981F8AC053221CD48A0F8AE1509
:1013C0000021A0F8B015704770B504460D462946B7
:1013D000204603F07EFF70BDC54A10700122C44B49
:1013E0005A707047C24A82F84C05012382F84D3585
:1013F00070472DE9F04104460D4600260027E178AC
:10140000A81F814201D0BDE8F081002006E0215CE8
:101410003144CEB2B919CFB2411CC8B2A91E814223
:10142000F5DC601910F8020CB04204D1601910F814
:10143000010CB84200D0E6E72078AA2805D16078F0
:10144000612803D06078FF2800D0DCE7A07820284E
:1014500011D1A088A7490880E08848802089888029
:101460006089C880A0890881E0894881208A8881B4
:10147000608AC88184E0A0780F280DD1207940B21D
:101480009D490870607940B24870A07940B2887078
:10149000E07940B2C87073E0A07806280CD12079BA
:1014A000964948706079C870A0790871E1799348CD
:1014B0004171217A817163E0A078072860D0A0781B
:1014C000E0281ED12079012806D0022805D0102856
:1014D00004D0112804D102E003E002E001E000E0C2
:1014E00000BF00BF2079824981F80C06084680F8C9
:1014F0000D6680F80E7600F20C61AF20FFF76CFFEE
:101500003EE0A078B0B97A4890F80F062179884279
:1015100036D1774890F810066179884230D1744806
:1015200090F81106A17988422AD10020704981F8EB
:10153000000625E0A078E12811D12179607901EB3E
:1015400000201FFA80F86A48A0F814860021C0F82D
:10155000181600F21461FF20FFF744FF10E0A07896
:10156000E2280DD12079624981F80C06084680F8FE
:101570000D6680F80E7600F20C61FF20FFF72CFF5D
:1015800000BF40E710B504465D48007838B9AA2C82
:1015900005D101205A4908705A48047072E0584831
:1015A0000078012809D1612C01D0FF2C05D102203F
:1015B000534908705348447064E051480078022849
:1015C00005D103204E4908704E4884705AE04C48BB
:1015D000007803280CD1FA2C0ADA04204849087054
:1015E0004848C4704848047000204849087049E0E1
:1015F00043480078042819D143480078002815DDB5
:1016000041480078401E40490870404800783F49F2
:101610000978491C3D4A1170001D3A490C543A485A
:10162000007858BB0520364908702BE03448007814
:1016300005280DD106203249087034480078334916
:101640000978491C314A1170001D2E490C5419E0CB
:101650002B480078062812D10020294908702B4811
:101660000078001D27490C5428480078401D28495F
:101670000870084601782348FFF7BBFE02E000200F
:101680001F49087010BD7CB50346402B7CD00BDC95
:10169000302B4CD003DCA3B10D2B72D13AE0332BAD
:1016A00052D0342BF9D15DE0E22B6BD004DC412B1E
:1016B00078D0E02BF1D182E0F12B72D0F22BECD17B
:1016C000EAE00B4890F80C460D78681C08705455F9
:1016D000074890F80D460D78681C0870545504486A
:1016E00090F80E460D78681C08705455F4E0000020
:1016F000A8020020D209002020020020220A002097
:101700004C010020C40800204A0100204B010020A9
:1017100048010020002007E0F24C255C0E78741C84
:101720000C709555441CE0B20428F5DBD4E0002091
:1017300007E0ED4C255C0E78741C0C709555441C2C
:10174000E0B21728F5DBC7E0002008E0E64C193CC2
:10175000255C0E78741C0C709555441CE0B206286C
:10176000F4DBB9E0002008E0DF4CE41F255C0E78D4
:10177000741C0C709555441CE0B20728F4DBABE0F8
:1017800002E0A8E02FE00DE0002007E0D74C255C48
:101790000E78741C0C709555441CE0B21428F5DBCF
:1017A0009AE048E0002007E0D14C255C0E78741CDC
:1017B0000C709555441CE0B20E28F5DB8CE0CD484A
:1017C00090F801460D78681C08705455002007E019
:1017D000C94C255C0E78741C0C709555441CE0B205
:1017E0000A28F5DB78E0C348B0F8140600B201908F
:1017F0009DF804400D78681C08705455BD48D0F819
:10180000180600909DF800400D78681C087054552B
:101810009DF801400D78681C087054559DF80240F1
:101820000D78681C087054559DF803400D78681CAD
:101830000870545550E0B148808B00B201909DF87B
:1018400004400D78681C087054559DF805400D78CB
:10185000681C08705455AA48B0F9000001909DF822
:1018600004400D78681C087054559DF805400D78AB
:10187000681C08705455A348B0F9000001909DF809
:1018800004400D78681C087054559DF805400D788B
:10189000681C087054551FE09B48408801909DF8D3
:1018A00004400D78681C087054559DF805400D786B
:1018B000681C087054559448808801909DF8044035
:1018C0000D78681C087054559DF805400D78681C0B
:1018D0000870545500E000BF00BF7CBDF8B5044659
:1018E0000F4600200090AA219DF80020501CC0B295
:1018F00000908648815439789DF80020501CC0B271
:101900000090824881549DF80010481CC0B200909D
:101910007E48445400219DF80020501CC0B2009025
:101920007A488154024669462046FFF7ACFE9DF88E
:101930000000001F7549C87000250026002007E040
:101940007249095C2944CDB27119CEB2411CC8B2AA
:101950009DF800108842F3DB9DF80010481CC0B2CF
:1019600000906A4845549DF80010481CC0B2009091
:10197000664846545F4890F8000640B1E02C06D116
:101980005C4880F80F4680F8105680F811669DF884
:1019900000105E48FFF718FDF8BD10B5044604EBD3
:1019A0004400544901EB4000408828B304EB440054
:1019B00001EB4000808804EB44014E4A02EB4101F8
:1019C000498888420CDA04EB4400114601EB4000E0
:1019D0008088401C04EB440102EB410188800BE04D
:1019E000012004EB4401434A02EB4101888004EBEF
:1019F000440102EB4101487004EB44003D4901EB16
:101A00004000407868B1002004EB4401394A02EB01
:101A10004101487004EB440002EB40012046FFF70F
:101A20005DFF10BD334A82F84005012382F841353D
:101A30000122304B83F80026704710B52DED028B44
:101A4000B0EE408A00F021F83020FFF7A6FF3320E7
:101A5000FFF7A3FF3420FFF7A0FF4020FFF79DFF13
:101A60004120FFF79AFFE020FFF797FFE220FFF702
:101A700094FF0D20FFF791FFF120FFF78EFFF2207A
:101A8000FFF78BFFBDEC028B10BD1A4890F80006E3
:101A9000012821D11E480078322805DA1C48007838
:101AA000401C1B4908701CE00020194908701948A7
:101AB0000078401C1749087008460078052804DAA9
:101AC00001210C4880F841150BE0002011490870F5
:101AD000084981F8000604E000200D4908700D490E
:101AE000087070474E0100200B0A00200A0B0020EE
:101AF000C4090020A8020020AA0800203C0B0020F6
:101B00000400002002000020EC01002074020020EC
:101B10004D0100204901002000B52DED028B85B05C
:101B2000B0EE408AFE4890F8380000287CD1FC488E
:101B300090F839000028F9D1F948B0F94200B0F521
:101B4000966F06DA012000F054FB0120F549087079
:101B500013E0F348B0F9420040F2A461884206DA8B
:101B6000022000F046FB0220EE49087005E0032049
:101B700000F03FFB0320EB490870EA484078E94950
:101B8000097888420BD0E7480078E6494870084653
:101B90000078032803D108468078401C8870E1480B
:101BA000807810B3E0480088B0F5FA6F10DADE48AC
:101BB000008800EE100AB8EE400ADFEDDC0A00EE05
:101BC000880ABCEEC00A10EE100AD74908800CE063
:101BD000D4498978032901DB00F0B6FB20B100214C
:101BE000D14A1180CF4A917000BFCD48B0F93A0078
:101BF000A0F2DC5000EE900AF8EEE00AB0EE600AC7
:101C00009FEDCB1ADFEDCB0A01F0EAF88DED010A6A
:101C1000C348B0F93C00A0F2DC5000EE900AF8EEA8
:101C2000E00AB0EE600A00E081E09FEDC11ADFED4E
:101C3000C10A01F0D5F88DED020AB948B0F93E00AD
:101C4000A0F2DC5000EE900AF8EEE00AB0EE600A76
:101C50009FEDB91ADFEDB70A01F0C2F88DED030A66
:101C6000AF48B0F94000A0F2DC5000EE900AF8EE68
:101C7000E00AB0EE600A9FEDB01ADFEDAE0A01F0A7
:101C8000AFF88DED040AAD48007858B19FEDA90A70
:101C90008DED010A9FEDA70A8DED020A9FEDA50AC1
:101CA0008DED040A9DED010ADFEDA50A20EE200A64
:101CB000DFEDA40A20EE200ABDEEC00A10EE100AE5
:101CC00000B2A14908809DED020AB1EE400ADFEDA5
:101CD0009C0A20EE200ADFED9B0A20EE200ABDEED2
:101CE000C00A10EE100A00B248808D48C08FA0F5DF
:101CF0007A7000B288809DED040AB1EE400ADFEDF3
:101D0000930A20EE200ADFED920A20EE200ABDEEB3
:101D1000C00A10EE100A00B2C88001218D4880F878
:101D2000871100208C4908708C49087009E040F246
:101D3000DC507B494887014679488187C187A0F8F4
:101D4000401005B0BDEC028B00BD10B504468448C0
:101D5000008800EE100AB8EE400ADFED820A20EE9D
:101D6000200ABDEEC00A10EE100A00B27E490880BB
:101D70007B48408800EE100AB8EE400ADFED790A91
:101D800020EE200ABDEEC00A10EE100A00B2488014
:101D90007348808800EE100AB8EE400ADFED710A41
:101DA00020EE200ABDEEC00A10EE100A00B28880B4
:101DB0006B48C08800EE100AB8EE400ADFED690AF1
:101DC00020EE200ABDEEC00A10EE100A00B2C88054
:101DD0006348008900EE100AB8EE400ADFED610AA0
:101DE00020EE200ABDEEC00A10EE100A00B20881F3
:101DF0005B48408900EE100AB8EE400ADFED590A50
:101E000020EE200ABDEEC00A10EE100A00B2488192
:101E10005348808900EE100AB8EE400ADFED510AFF
:101E200020EE200ABDEEC00A10EE100A00B2888132
:101E30004B48C08900EE100AB8EE400ADFED490AAF
:101E400020EE200ABDEEC00A10EE100A00B2C881D2
:101E50004648007818B901204449087027E0E4B1E9
:101E6000002017E0404931F91010002901DC002161
:101E70000BE03D4931F91010B1F57A7F02DD4FF4E6
:101E80007A7102E0384931F91010374A22F81010FF
:101E9000411CC8B20828E5DB09E0002005E000216C
:101EA000314A22F81010411CC8B20828F7DB2E482E
:101EB00002F0FDFB10BD10B502F0B8F9DFED2C0A01
:101EC00020EE200ABCEEC00A10EE100A2949088054
:101ED00010BD10B528480088401C274908800846D6
:101EE00000880A2190FBF1F201FB120022490880D0
:101EF0000846008890B99FED210A01F082FB9FED12
:101F00001F0AFFF709FE9FED1D0A00F037FC9FED49
:101F10001B0A01F005FC1848408831E041E0000050
:101F2000D00A0020540100205801002000007A440B
:101F300000002042000000000000A04266010020D6
:101F40008F360E3B00C05A45C4090020C6F91B3B22
:101F500000004843A8020020520100205301002045
:101F6000D2090020CDCCCC3DE20900205A0100204E
:101F70000000C8424E0100205C0100200AD7233C2B
:101F8000401C10494880084640880A2190FBF1F225
:101F900001FB12000B4948800846408808B9FFF74A
:101FA0008AFF03F015FA9FED080A00F00FF89FED85
:101FB000060AFFF742FD0120FFF7C7FE02F0D7F93E
:101FC00010BD00005C0100206F12833A10B52DEDAA
:101FD000028BB0EE408A00F020F800BF2D48407818
:101FE0002D490978884214D02A4840782A49087037
:101FF00000202A4988744FF487712848A0F81310EC
:102000002448C1692548C0F815100121244880F8EA
:10201000391100BFBDEC028B10BD22480078FF28AB
:1020200004D020480078401C1E49087019480078E8
:102030001D490978884216D0164800781A49087058
:102040001448007A50B11348C07838B1114840891B
:10205000124908800F488089488004E04FF400400E
:102060000E49088048800B4840781049097888421A
:102070000ED0084840780D4908704FF400400749D9
:1020800088800121064880F8331100200549087036
:10209000704700003C0B002063010020F209002083
:1020A000A8020020620100206001002061010020E0
:1020B000014651B1FE4800784006000EFC4A1070FF
:1020C00010460078401C107005E0F9480078400682
:1020D000000EF74A1070F648007800F00F000F2845
:1020E00001D101207047F24802780F2090430F2859
:1020F00002D14FF0FF30F5E70020F3E7142803DDAD
:102100001421EC4A118109E010F1140F04DA6FF088
:102110001301E84A118101E0E6490881704714285B
:1021200003DD1421E34A518109E010F1140F04DAB0
:102130006FF01301DF4A518101E0DE4948817047A9
:10214000282803DD2821DB4A918109E010F1280FBE
:1021500004DA6FF02701D74A918101E0D5498881DF
:102160007047D449C88070470020D249088148810F
:102170008881C88070470020CE4908814881C88086
:10218000704710B50120CC498870CC4890F8000603
:1021900088B91020C94981F801060021C74880F894
:1021A0000216012180F8031600F20161FF20FFF7FB
:1021B00039FC012010BD0020FCE710B50020BE490D
:1021C0008870BE4890F8000688B91020BB4981F895
:1021D00001060021B94880F80216022180F8031692
:1021E00000F20161FF20FFF71DFC012010BD00205F
:1021F000FCE710B50446B2480078A0421FD0AF48B3
:1022000090F80006C8B9AC480470AD4804700120CD
:10221000AA4981F801060121A84880F8021680F831
:102220000316A5480178A54880F8041600F201615C
:10223000FF20FFF7F7FB012010BD0020FCE7012085
:10224000FAE713B59D4890F8000608BB10209B499B
:1022500081F801060221994880F80216072180F8CA
:1022600003169DF8001080F804169DF8011080F800
:1022700005169DF8041080F806169DF8051080F8E4
:10228000071600F20161FF20FFF7CCFB01201CBD07
:102290000020FCE713B5894890F8000608BB102021
:1022A000864981F801060221844880F80216082137
:1022B00080F803169DF8001080F804169DF80110B0
:1022C00080F805169DF8041080F806169DF8051094
:1022D00080F8071600F20161FF20FFF7A3FB012041
:1022E0001CBD0020FCE737B50C46744890F800068A
:1022F00040BB1020714981F8010602216F4880F827
:1023000002161CB1012180F8031603E002216B487C
:1023100080F803169DF80010684880F804169DF8B0
:10232000011080F805169DF8081080F806169DF833
:10233000091080F8071600F20161FF20FFF772FB19
:1023400001203EBD0020FCE710B55C4890F8000677
:1023500088B91020594981F801060021574880F8B2
:102360000216072180F8031600F20161FF20FFF733
:1023700059FB012010BD0020FCE701B54F4890F843
:102380000006C8B910204D4981F8010600214B48CC
:1023900080F80216052180F803169DF8001080F8D9
:1023A00004169DF8011080F8051600F20161FF2067
:1023B000FFF738FB012008BD0020FCE710B53F48BF
:1023C00090F8000688B910203C4981F801060021E8
:1023D0003A4880F80216062180F8031600F20161DF
:1023E000FF20FFF71FFB012010BD0020FCE707B511
:1023F000324890F8000648BB1020304981F80106A9
:1024000002212E4880F80216032180F803169DF859
:10241000001080F804169DF8011080F805169DF84C
:10242000041080F806169DF8051080F807169DF830
:10243000081080F808169DF8091080F8091600F2B7
:102440000161FF20FFF7EEFA01200EBD0020FCE73E
:1024500010B51A4890F8000688B90120174981F88C
:1024600001060021154880F80216032180F80316A2
:1024700000F20161FF20FFF7D5FA012010BD002016
:10248000FCE710B50D4890F80006D8B901200B49BB
:1024900081F801060021094880F80216042180F81D
:1024A000031600F20161FF20FFF7BCFA012010BD06
:1024B00064010020C4090020220A0020A802002094
:1024C000650100200020F2E710B5184890F80006DA
:1024D00088B90120154981F801060021134880F8C8
:1024E0000216052180F8031600F20161FF20FFF7B4
:1024F00099FA012010BD0020FCE710B50B4890F8B8
:10250000000688B90120094981F801060021074821
:1025100080F80216022180F8031600F20161FF2004
:10252000FFF780FA012010BD0020FCE7A802002080
:1025300010B504469848B0F94000B0F5AF6F0BDD18
:102540009548B0F94000B0F5C86F05DA012093490D
:1025500048709349087002E00020904948708E4806
:10256000B0F93E00B0F5966F06DA8C48407818B99D
:1025700001208A49087002E00020884908708848D4
:10258000007801284AD18748C078002853D1824872
:10259000B0F93A0040F26C71884210DD7E48B0F923
:1025A0003C0040F24C41884209DA7B48B0F93E00D9
:1025B000884204DA7848B0F94000884217DB764850
:1025C000B0F9400040F26C71884230DD7248B0F9D9
:1025D0003C0040F24C41884229DA6F48B0F93E0095
:1025E000884224DA6C48B0F93A0088421FDA6E4813
:1025F0000088B0F57A7F12DAD4ED000A6A480088C4
:1026000000EE100AB8EE400A9FED681A00EE810A4B
:10261000BCEEC00A10EE100A6349088062E0FFF7C2
:10262000B0FD0020604908805D4908705AE0002034
:102630005D49088056E05B48C078012852D1564871
:10264000B0F93A0040F26C71884210DD5248B0F99E
:102650003C0040F24C41884209DA4F48B0F93E0054
:10266000884204DA4C48B0F94000884217DB4A48F7
:10267000B0F9400040F26C71884230DD4648B0F954
:102680003C0040F24C41884229DA4348B0F93E0010
:10269000884224DA4048B0F93A0088421FDA4248BA
:1026A0000088B0F5967F12DAD4ED000A3E48008823
:1026B00000EE100AB8EE400A9FED3C1A00EE810AC7
:1026C000BCEEC00A10EE100A374908800AE0FFF796
:1026D00074FD0020344908803149087002E0002070
:1026E0003149088010BD10B52E48C078002844D16B
:1026F0002948B0F9400040F24C41884217DA264898
:10270000B0F93C00884212DA2348B0F93E00884212
:102710000DDA2148B0F93A00884208DA24480078F6
:1027200038BBFFF795FE01202149087025E01A48C3
:10273000B0F9400040F26C7188421BDD1648B0F9D8
:102740003C0040F24C41884214DA1348B0F93E0094
:1027500088420FDA1048B0F93A0040F26C718842B2
:1027600008DD1348007820B9FFF78BFE01201049DF
:10277000087002E000200E49087010BD10B52DED64
:10278000020B054890F8380020B96846FFF7D0FEE4
:10279000FFF7A9FF1CBD0000D00A00206601002041
:1027A0006A010020220A00206801002000007A440B
:1027B0006B010020B0EE403AB5EEC03AF1EE10FAEF
:1027C00002D19FED790A03E0F7EE004A84EE830A16
:1027D000B0EE404A91ED010A31EE400A20EE040AC3
:1027E00081ED050A027842B991ED020A31EEC00A84
:1027F00020EE040A81ED030A03E091ED040A81ED65
:10280000030A90ED030AD1ED054A20EE240AD0ED2B
:10281000044A91ED035AF0EE403A44EEC53A31EEE7
:10282000610A81ED000AD0ED024A91ED000AB1EE95
:10283000425AB4EEC50AF1EE10FA02D8B1EE420ADD
:102840000BE091ED000AB4EEC20AF1EE10FA02DDDF
:10285000B0EE420A01E091ED000A64EE804A91ED8B
:10286000060A04EE830A81ED060A91ED060AF1EEEE
:10287000624AB4EEE40AF1EE10FA02D8B1EE620A4E
:102880000BE091ED060AB4EEE20AF1EE10FA02DD79
:10289000B0EE620A01E091ED060A81ED060A90EDC4
:1028A000010AD1ED004A20EE240AD0ED054A04EEDB
:1028B000A00A30EE230AD1ED064A30EE240A81ED5B
:1028C000090AC1ED021A81ED011A91ED090A70475A
:1028D00010B503460C46F3EE0E2AB2EE042A334935
:1028E000334800EE104AF8EE401A00EE103AB8EE07
:1028F000401ADFED2D0A9FED2F0AFFF75BFF10BD99
:1029000010B503460C46F3EE0E2AB2EE042A2A490D
:102910002A4800EE104AF8EEC01A00EE103AB8EE5F
:10292000C01ADFED210A9FED260AFFF743FF10BD15
:1029300010B503460C46F3EE0E2AB2EE042A2149E6
:10294000214800EE104AF8EEC01A00EE103AB8EE38
:10295000C01ADFED150A9FED1A0AFFF72BFF10BD15
:1029600010B503460C461948007838B19FED0E0AA1
:10297000174880ED060A002014490870F3EE042A77
:10298000B1EE042A1249134800EE104AF8EEC01ABC
:1029900000EE103AB8EEC01ADFED030A9FED080A08
:1029A000FFF708FF10BD000000000000300A002003
:1029B00070010020022B073D580A002088010020EA
:1029C000CDCC4C3D800A0020A00100206C010020ED
:1029D000A80A0020B8010020F0EE400AF5EEC00A77
:1029E000F1EE10FA02DBB0EE600A7047B1EE600A59
:1029F000FBE700B5B0EE403AB0EE602AB5EEC03A63
:102A0000F1EE10FA07D1B5EEC02AF1EE10FA02D1BC
:102A10009FEDFC1A99E0B0EE430AFFF7DDFFF0EE00
:102A2000403AB0EE420AFFF7D7FFF0EE402AF4EE4C
:102A3000E23AF1EE10FA02D283EEA24A01E082EE0F
:102A4000A34A9FEDF10AB4EEC04AF1EE10FA02D2A9
:102A5000F0EE441A2DE0DFEDED0AB6EE000A14EEBA
:102A6000200AF0EE404ABDEEE40A10EE100A00EE35
:102A7000100AB8EEC00A34EEC00AF0EE404AE4494B
:102A800001EB800191ED000AF0EE401AE04A411C92
:102A900002EB810191ED000A114601EB8001D1EDBD
:102AA000000A70EE600AB0EE610A00EEA40AF0EED1
:102AB000401AF4EEE32AF1EE10FA20DDB5EEC02A5A
:102AC000F1EE10FA0ADBB5EEC03AF1EE10FA02DBD5
:102AD000B0EE611A39E0B1EE611A36E09FEDCD1A21
:102AE000B5EEC03AF1EE10FA04DB31EE610AB0EE59
:102AF000401A2AE031EEC10AB0EE401A25E0B5EEE8
:102B0000C03AF1EE10FA10DB9FEDC31AB5EEC02A01
:102B1000F1EE10FA04DB31EE610AB0EE401A14E077
:102B200031EE210AB0EE401A0FE09FEDBC1AB5EE6F
:102B3000C02AF1EE10FA04DB31EE210AB0EE401AA1
:102B400003E031EE610AB0EE401AB0EE410A00BD7A
:102B500000B5B0EE405AF0EE605AF0EE450AB0EE25
:102B6000650AFFF746FF00BDF0EE400AF6EE001AD8
:102B700060EEA11AB0EE611AB0EE600A10EE100A13
:102B8000A749A1EB600000EE100A21EE002AF7EE43
:102B9000081A42EE401A61EE801AB0EE610A21EE88
:102BA000002AF7EE081A42EE401A61EE801AB0EEE3
:102BB000610A704700B5F0EE402AB0EE620AFFF7F6
:102BC000D3FF20EE220A00BD10B52DED0A8BB0EE2A
:102BD000409AF0EE609A9FED930B53EC102B51EC62
:102BE000190B0AF0A9FD18D29FED900B53EC102B96
:102BF00051EC190B0AF01DFD41EC1B0B9FED8D0BE9
:102C000053EC102B0AF06EFC41EC1A0B53EC192B11
:102C10000AF00FFD41EC180B17E09FED840B53EC0D
:102C2000102B51EC190B0AF004FD41EC1B0B9FED2E
:102C3000810B53EC102B0AF0F9FC41EC1A0B53EC0E
:102C4000192B0AF0F6FC41EC180B9FED760B53ECB8
:102C5000102B51EC180B0AF06FFD20D29FED770B73
:102C600053EC102B51EC180B0AF03CFC41EC1C0B04
:102C70009FED740B53EC102B0AF0DBFC41EC1B0BAB
:102C80009FED6E0B53EC102B0AF02CFC41EC1A0B51
:102C900053EC182B0AF0CDFC41EC180B1FE09FED14
:102CA000670B53EC102B51EC180B0AF0BCFC41ECF9
:102CB0001C0B9FED660B53EC102B0AF0BAFC41EC99
:102CC0001B0B9FED5E0B53EC102B0AF00BFC41EC41
:102CD0001A0B53EC182B0AF0ACFC41EC180BB0EEBD
:102CE000480AF0EE680ABDEC0A8B10BD10B52DED58
:102CF000068BB0EE408AF0EE608A01249FED550B02
:102D000053EC102B51EC180B0AF02EFD0AD89FED56
:102D1000510B53EC102B51EC180B0AF084FC41ECD6
:102D2000180BA41E20460AF0F6FC41EC190BB0EE7D
:102D3000480AF0EE680AFFF747FFB0EE40AAF0EE4F
:102D400060AA53EC192B51EC1A0B0AF072FC41ECFF
:102D5000100BBDEC068B10BD10B52DED088BB0EE41
:102D6000408AF0EE608A01249FED3C0B53EC102B5F
:102D700051EC180B0AF0B6FB41EC180B9FED350B2C
:102D800053EC102B51EC180B0AF0EEFC0AD8A41EE1
:102D90009FED300B53EC102B51EC180B0AF043FC59
:102DA00041EC180B20460AF0B6FC41EC1A0BB0EED1
:102DB000480AF0EE680AFFF799FFB0EE40BAF0EE6D
:102DC00060BA53EC1A2B51EC1B0B0AF032FC41ECAD
:102DD000190B0AF0E1FC00EE100ABDEC088B10BDE7
:102DE000F0EE401AF4EEE01AF1EE10FA3ADD31EEB0
:102DF000C10AB4EEE00AF1EE10FA3CD2B0EE600A7D
:102E000039E00000000000008180803B000080432A
:102E1000F4D90008DB0F4940DB0FC93FDB0FC9BF06
:102E2000DF59375F00000000000000000000006074
:102E30002FF0D93F00000060305FF43F0000000039
:102E40000000F03F000000C0CCCCCCBF000000C0B0
:102E5000CCCCCC3FF1D4C853FB210940F1D4C853AA
:102E6000FB21F93F31EE810AB4EEE00AF1EE10FAEF
:102E700001DDB0EE600A7047F0EE401AB1EE412A73
:102E800032EE202AB4EEE12AF1EE10FA09D231EE48
:102E9000202AB4EEE12AF1EE10FA02DDB0EE600A6B
:102EA00001E0B0EE610A7047F0EE402AB5EEC01ABC
:102EB000F1EE10FA02DDB0EE410A01E0B1EE410A96
:102EC000B6EE003A22EE033A23EE213AB4EEC30AFC
:102ED000F1EE10FA06D29FEDD40A20EE800AF0EE51
:102EE000400A4DE0B5EEC01AF1EE10FA02DDB0EE88
:102EF000410A01E0B1EE410A22EE213AB4EEC30AE2
:102F0000F1EE10FA06D29FEDC90A20EE800AF0EE2B
:102F1000400A35E0B5EEC01AF1EE10FA02DDB0EE6F
:102F2000410A01E0B1EE410AB4EEE10AF1EE10FA15
:102F300006D2B6EE000A20EE800AF0EE400A1FE04C
:102F4000B5EEC01AF1EE10FA02DDB0EE410A01E072
:102F5000B1EE410AB0EE003A21EE833AB4EEC30A74
:102F6000F1EE10FA06D29FEDB20A20EE800AF0EEE2
:102F7000400A05E09FEDAF0A20EE800AF0EE400A1D
:102F80009FEDAD0A20EE800A20EE223AF7EE003ADD
:102F900083EE830AB7EE003A30EE030AF7EE003A0A
:102FA00083EE803A90ED000A71EE403A90ED000A0F
:102FB00003EE230A80ED000A90ED000AB1EE423ADA
:102FC00023EE213AB4EEC30AF1EE10FA04D8B1EEC2
:102FD000420A20EE210A0DE090ED000A22EE213A8D
:102FE000B4EEC30AF1EE10FA02DD22EE210A01E08E
:102FF00090ED000A80ED000A90ED000A31EE400AE3
:10300000704710B52DED028BB0EE408AF0EE608A6D
:103010009FED8A0B53EC102B51EC180B0AF0A4FB1C
:103020000CD29FED880B53EC102B51EC180B0AF0CF
:10303000FAFA41EC100BBDEC028B10BD9FED830B37
:1030400053EC102B51EC180B0AF076FB0AD29FEDD3
:103050007D0B53EC102B51EC180B0AF043FA41ECAA
:10306000100BE8E7B0EE480AF0EE680AE3E730B587
:1030700005460C46F0EE403AD5ED000A60EEA00A97
:1030800094ED001AD4ED001A41EE210AB0EE600A68
:10309000FFF790FDB0EE403AB5EEC03AF1EE10FA0F
:1030A00002D81FEDA80A09E0B4EEE33AF1EE10FAF7
:1030B00002DDB0EE630A01E0B0EE430AB0EE404A32
:1030C000B5EEC03AF1EE10FA06D11FEDB20A83ED6B
:1030D000000A82ED000A0FE084EE030AD5ED000A33
:1030E00020EE200A82ED000A84EE030AD4ED000AE5
:1030F00020EE200A83ED000A30BDF0EE400A0B7886
:1031000002EB8303C3ED000A0B785B1C0B700B789A
:10311000834201DB00230B700B7802EB830393EDFA
:10312000000A704700B50246B0EE403A0B46F7EE93
:10313000000A43EE430AB0EE600AFFF73BFDD2ED12
:10314000000A20EE200AD2ED010A00EEC30A83ED48
:10315000000AF7EE000A43EE430AB0EE600AFFF7FA
:1031600029FDD2ED010A20EE200AD2ED000A00EE80
:10317000830A83ED010A00BD90ED000AD1ED010A3A
:1031800020EE200AD0ED010A91ED001A00EEC10AEE
:10319000704790ED000AD1ED000A20EE200AD0ED34
:1031A000010A91ED011A00EE810A704790ED010AC3
:1031B000D1ED020A20EE200AD0ED020A91ED011AAB
:1031C00000EEC10A82ED000A90ED020AD1ED000A7C
:1031D00020EE200AD0ED000A91ED021A00EEC10A9D
:1031E00082ED010A90ED000AD1ED010A20EE200ADD
:1031F000D0ED010A91ED001A00EEC10A82ED020A3B
:10320000704790ED000AD1ED000A20EE200AD0EDC3
:10321000010A91ED011A00EE810AD0ED020A91ED4A
:10322000021A00EE810A70479A99993FCDCC4C3F23
:10323000CDCC4C3ECDCCCC3DC3F5C8400000000009
:103240000080664000000000008076400000000022
:10325000008066C010B501F075FA0120F74981F8C9
:10326000380010BD10B500F049FF642000F03AFFAF
:1032700001F01CF802F0C6F801F0A6F802F000F91F
:10328000642000F02FFF4FF4612001F094FBEC4824
:1032900001F08BFCEA4801F082FDE94801F0A0FE54
:1032A000E74801F086FF642000F01CFFFFF7D2FF23
:1032B00000F068FF642000F015FFFEF71BF84FF4E4
:1032C000487000F00FFF01F067FB012010BD40F6D1
:1032D000C411884203DDDB490978032903DCD9499D
:1032E00009780A290DD10021D64A1170D349B1F8C5
:1032F0004E10491CD14AA2F84E10012182F85010FC
:1033000012E0B0F5967F0FDD40F6B83188420BDA57
:1033100002B2CA49891CCB4B1B7821F81320C9493A
:103320000978491CC74A1170704738B50446C6A0D1
:1033300000680090C5484068C449086000F0A7FED6
:10334000C2494860084640680968401A40F6C411FE
:10335000884202D90020BE490870BD480178007833
:10336000401CBB4A1070BB484454104600781928D2
:103370007ED1182011460870B64800780F2878D101
:10338000B448007E38B1B348007EB34A12781DF8C5
:1033900002108842F3D10020AD490870AD48407852
:1033A000AC49897801F0070140EA0120A3498882ED
:1033B000A848C0788006400DA649897840EAE10017
:1033C0009E49C882A3484079C007400DA1490979A8
:1033D00040EA81009F49C97840EAA11097490883D3
:1033E0009C4880790007400D9A49497940EA61007C
:1033F000924948839748C0794006400D954989799C
:1034000040EA21108D4988839248407A8007400D18
:103410009049097A40EA41008E49C97940EAE110B1
:103420008649C8838B48807AC006400D8949497A0D
:1034300040EAA100814908848648C07AC0008549D5
:10344000897A40EA61117D4841848248007B814944
:10345000497B01F0070140EA0120784988847D48D2
:10346000807B8006400D7B49497B40EAE10001E01A
:1034700072E067E07149C8847648007CC007400D5F
:103480007449C97B40EA81007249897B40EAA110F6
:103490006A4908856F48407C0007400D6D49097CEA
:1034A00040EA6100654948856A48807C4006400DD5
:1034B0006849497C40EA2110604988856548007D5B
:1034C0008007400D6349C97C40EA41006149897C1D
:1034D00040EAE1105949C8855E48407DC006400D6C
:1034E0005C49097D40EAA100544908865948807D1D
:1034F000C0005849497D40EA61115048418655480D
:10350000C07D4E4981F83400084690F8340000F040
:10351000080040B90846B0F84E00401CA1F84E0023
:10352000022081F850004C480078401C4A4908703D
:103530000878C11700EB91718910A0EB8101464A10
:10354000117009E0002005E0424A411C515C115411
:10355000411CC8B21828F7DB38BD10B50446D4EDBD
:10356000000A3E48008800EE100AB8EE400A9FEDBF
:103570003C1A00EE810ABCEEC00A10EE100A374970
:10358000088008460088B0F57A7F39DD0020088081
:103590002A48B0F84E002949C8860846C08E05283A
:1035A00003DA012081F8380003E00020234981F884
:1035B0003800224890F83800C8B120480078D8B9BF
:1035C00028480078401C27490870087800EBD07123
:1035D0004910A0EB4101234A1170104600780128E0
:1035E00002D101F030F907E001F0ACF804E0134833
:1035F00090F850001149087000201049A1F84E00C1
:1036000010BD10B52DED020B6846FFF7A6FF0B4865
:1036100090F8380000286CD108480078012823D1A0
:10362000002008E00549891C31F81020383121F8C4
:103630001020411CC8B20A28F4DB38E0D00A002070
:1036400020A10700D001002004142434D40100205C
:10365000DC010020220B0020DD010020E001002021
:1036600000007A44DE0100202A48007802281ED19A
:1036700000201AE02749143131F91010A1F58061BA
:1036800000EE101AF8EEC00A9FED230A9FED231AF0
:1036900001EE200ABDEEC00A10EE101A0AB21D4952
:1036A0003A3121F81020411CC8B20A28E2DB19483F
:1036B000B0F94200B0F5966F05DD1648B0F942004A
:1036C000B0F5AF6F0BDB1348B0F94200B0F5C86F2F
:1036D0000ADD1048B0F94200B0F5E16F04DA0120CC
:1036E0000C4981F8390013E000200A4981F83900BB
:1036F0000EE00120074981F83900002006E0002291
:1037000004493A3121F81020411CC8B20A28F6DBDE
:103710001CBD0000D00A00200080BB442FDD243FE8
:1037200008B5C648D0ED000A9FEDC51AF4EEC10AEF
:10373000F1EE10FA0BD2D0ED000AB7EE001A70EEDF
:10374000810AC0ED000A0120BE49887002E0002015
:10375000BC498870B948D0ED010A9FEDB91AF4EE62
:10376000C10AF1EE10FA0BD2D0ED010AB7EE001A41
:1037700070EE810AC0ED010A01208DF8000002E020
:1037800000208DF80000AD48D0ED020A9FEDAC1A84
:10379000F4EEC10AF1EE10FA0BD2D0ED020AB7EE48
:1037A000001A70EE810AC0ED020A01208DF80100B6
:1037B00002E000208DF801009DF8000030B19DF876
:1037C000010018B101209F49C87002E000209D4906
:1037D000C87008BD30B500220024C5788B1F9D42FB
:1037E00000D030BD002306E0C55C1544EAB2A51840
:1037F000ECB25D1CEBB28D1E9D42F5DC431813F854
:10380000023C934204D1431813F8013CA34200D078
:10381000E7E78378512B38D103795BB94379894D38
:103820006B7183795BB2AB71C3795BB2EB71037A75
:103830002B7183E00379012B12D14379814D2B72D7
:10384000C3886B810389AB81837A2B719FED7E0ADC
:103850007A4B83ED010A2B461B785B1C2B706DE0C5
:103860000379022B6AD14379764DAB73C3882B82DF
:1038700003896B824389AB828389EB82C3892B8363
:10388000038A6B83837C2B7158E08378342B0DD1B2
:10389000D0F807306B4DEB619FED6B0A674B83ED02
:1038A000020A2B465B785B1C6B7047E08378012B28
:1038B0000DD18388634D2B86C3886B860389AB86C5
:1038C0004389EB8683892B87C3896B8736E08378AE
:1038D000042B33D1B0F9043000EE103AB8EEC00A30
:1038E000DFED5A0A20EE200A564B83ED080AB0F9A4
:1038F000063000EE103AB8EEC00ADFED540A20EEB2
:10390000200A504B83ED090AB0F9083000EE103A56
:10391000B8EEC00ADFED4D0A20EE200A494B83EDD8
:103920000A0AB0F90A3000EE103AB8EEC00ADFED2C
:10393000470A20EE200A434B83ED0B0A00BF50E7F5
:1039400010B504464248007838B9AA2C05D10120A8
:103950003F4908703F4804706FE03D4800780128F7
:1039600009D1612C01D0FF2C05D102203849087003
:103970003848447061E036480078022805D10320B9
:10398000334908703348847057E031480078032881
:103990000CD1FA2C0ADA04202D4908702D48C47085
:1039A0002D48047000202D49087046E02848007812
:1039B000042819D128480078002815DD2648007809
:1039C000401E254908702548007824490978491C7B
:1039D000224A1170001D1F490C541F48007840BB3B
:1039E00005201B49087028E01948007805280DD1EA
:1039F0000620174908701948007818490978491CA9
:103A0000164A1170001D13490C5416E01048007836
:103A100006280FD100200E49087010480078001DBC
:103A20000C490C540D480078401DC1B20948FFF7FD
:103A3000D1FE02E000200649087010BDAC0B00204A
:103A40000000FA433C0B00200000000017B7D138FB
:103A5000E4010020780B0020E2010020E3010020B7
:103A6000B3484078302816D1B1488078B149087001
:103A7000AF480079AE49C97840EA012000B2AD49AB
:103A80004880AB488079AA49497940EA012000B2D0
:103A9000A84988803AE0A6484078312816D1A44841
:103AA0008078A5490870A2480079A149C97840EA00
:103AB000012000B2A04948809D4880799C494979FD
:103AC00040EA012000B29C4988801FE09848407875
:103AD00032281BD196488078984908709448C0785D
:103AE0004870934800798870914880799049497965
:103AF00040EA012000B2914988808D48007A8C49C3
:103B0000C97940EA012000B28C49C88070478C48CE
:103B10004078202815D18A4880788A4908708848DA
:103B200000798749C97840EA012000B28549488078
:103B3000834880798249497940EA012000B281496D
:103B40008880704710B5044679487F490978445405
:103B50007D48007858B9AA2C05D17B480078401CD4
:103B60007949087097E000207749087093E076481B
:103B70000078012826D1302C08D173480078401CE9
:103B80007149087001207149087010BD312C08D1AD
:103B90006D480078401C6C49087002206B49087021
:103BA000F3E7322C08D168480078401C6649087059
:103BB000032066490870E8E70020634908706349FC
:103BC0000870E2E760480078022864DB5F4800780C
:103BD00001281DD15C480078062805DC5A48007889
:103BE000401C5949087056E057480078072852D1C0
:103BF000FF2C05D0002054490870544908704AE051
:103C0000FFF72EFF0020504908705049087042E02D
:103C10004E48007802281DD14B480078062805DC64
:103C200049480078401C4849087034E0464800780C
:103C3000072830D1FF2C05D00020434908704349A4
:103C4000087028E0FFF70CFF00203F4908703F494B
:103C5000087020E03D48007803281CD13A480078DD
:103C6000082805DC38480078401C3749087012E005
:103C70003548007809280ED1FF2C05D000203249A4
:103C800008703249087006E0FFF7EAFE00202E496E
:103C900008702E49087000BF77E710B50446284821
:103CA0002B49097844542A48007858B9AA2C05D1E0
:103CB00027480078401C2649087037E00020244936
:103CC000087033E02248007801280AD1202C2DD139
:103CD0001F480078401C1E49087001201D490870CB
:103CE00010BD1B480078022820DB1A480078012804
:103CF0001CD117480078062805DC15480078401CC0
:103D00001349087012E01248007807280ED1FF2CE2
:103D100005D000200E4908700E49087006E0FFF734
:103D2000F6FE00200A4908700A49087000BFD7E76C
:103D3000B80B0020E6010020EC010020F801002073
:103D4000CC0B0020F2010020010200200202002022
:103D5000030200200402002087484078102804D184
:103D6000854880788549087032E08348407811287A
:103D70000AD181488078824908707F48C0784870AD
:103D80007D480079887023E07B484078122804D170
:103D9000794880787B4908701AE077484078132882
:103DA00016D175488078784908707348007972494F
:103DB000C97840EA012000B2734948806E48807992
:103DC0006D49497940EA01201E3800B26E49888069
:103DD000704710B5044668486C49097844546B48EC
:103DE000007858B9AA2C05D168480078401C67496A
:103DF0000870BEE0002065490870BAE063480078AA
:103E000001282BD1102C08D160480078401C5F4954
:103E1000087001205E49087010BD112C08D15B4864
:103E20000078401C59490870022059490870F3E78E
:103E3000122C08D155480078401C544908700320C2
:103E400053490870E8E7132CD3D150480078401C40
:103E50004E49087004204E490870DDE74B48007851
:103E60000228C6DB4A48007801281DD1474800785F
:103E7000022805DC45480078401C4449087078E079
:103E800042480078032874D1FF2C05D000203F4918
:103E900008703F4908706CE0FFF75EFF00203B4967
:103EA00008703B49087064E03948007802281DD149
:103EB00036480078042805DC34480078401C334933
:103EC000087056E031480078052852D1FF2C05D003
:103ED00000202E4908702E4908704AE0FFF73CFF89
:103EE00000202A4908702A49087042E028480078D2
:103EF00003281DD125480078022805DC23480078D6
:103F0000401C2249087034E020480078032830D152
:103F1000FF2C05D000201D4908701D49087028E0BD
:103F2000FFF71AFF0020194908701949087020E0AE
:103F30001748007804281CD114480078062805DCAE
:103F400012480078401C1149087012E00F480078B0
:103F500007280ED1FF2C05D000200C4908700C4911
:103F6000087006E0FFF7F8FE0020084908700849CD
:103F7000087000BF50E70000E00B002006020020A0
:103F800007020020140200200E020020150200206B
:103F900016020020704700BFFEE700BFFEE700BF2B
:103FA000FEE77047704710B5802003F044FF10B162
:103FB000802003F096FF10BD10B500F01BFC10BD73
:103FC000704710B50121114807F02BFE28B10121DF
:103FD0000E4807F083FEFDF77CFF10BD10B500F022
:103FE000ADFD10BD10B500F09EFE10BD10B500F087
:103FF000BBFF10BD10B501F0A0F810BD10B501F069
:10400000B0F910BD10B500F071FC10BD00140040F7
:104010007FB5684604F041FE4FF47A710198B0FB19
:10402000F1F4E4082146B1F1807F00D31DE021F0D6
:104030007F40401E4FF0E022506150170F220028B1
:1040400007DA13071E0E314B00F00F052D1F5E55CA
:1040500003E013071D0E2E4B1D5400BF00204FF030
:10406000E02290610720106100BF6FF0040001F0B2
:1040700015FC7FBD2748D0E900305A1C40F10000F4
:104080002449C1E90020704722480068704710B5F4
:1040900000BF204A11684FF0E02252694FF0E02340
:1040A0009B69D21A4FF47A735A434FF0E0235B694D
:1040B000B2FBF3F201EB4103C3EBC11302EBC3000C
:1040C000144C18CC4B402343E3D110BD30B504460B
:1040D000FFF7DDFF054600BFFFF7D9FF401BA042F9
:1040E000FAD330BD10B5044603E04FF47A70FFF701
:1040F000EDFF201EA4F10104F7D110BD10B54FF45F
:10410000806001F019FBFFF783FF10BD18ED00E0A0
:1041100000E400E01802002000B58FB0684602F00D
:1041200016FE0121880504F0D0FE00BF564803F0BA
:104130002BF90028FAD1009054480190544802907D
:104140000020039032200490002005904FF48060FE
:104150000690400007908000089000010A904012ED
:10416000099000200B9001200C9000200D900E90E3
:104170006946454802F095FC0121434802F0F8FDEC
:104180000FB000BD00B58DB001A801F089FC012180
:10419000042004F09AFE0121080204F07CFFFFF7DE
:1041A000BBFF03208DF8300020200B9000208DF8FD
:1041B00033000BA9374803F039FF0020099007901E
:1041C0004FF48030089000200A9007A801F072FC9C
:1041D000002001908DF8080001208DF809000020D2
:1041E0000390059001208DF8180001A927484C384C
:1041F00001F08DFB072301220F2124484C3801F0E8
:104200001EFE012121484C3801F0F7FF01211F4813
:104210004C3801F000FD01211C484C3801F0C7FF6B
:104220001A484C3801F0D7FE0DB000BD9FED1A0AB8
:10423000F0EE400A002010E0154931F8101000EEB1
:10424000101AB8EE401ADFED151AB0EE600A01EE52
:10425000210AF0EE400A411CC8B23228ECDB9FED87
:10426000101A80EE810A9FED0F1A20EE010AB2EEBD
:10427000061A20EE010AF7EE001A80EE211A9FEDD1
:104280000A0A21EE000A7047106402404C200140E7
:10429000F40B002000080240000000000AD7A33CF5
:1042A0000000804500404E456F12833A1CB56846B9
:1042B00003F067FF0121102004F007FE01208DF8B4
:1042C00004008DF8070000208DF8060002208DF80C
:1042D0000500072000906946384803F0A7FE01203A
:1042E0008DF804008DF8060002208DF8050080206E
:1042F00000906946314803F099FE02212F4804F0EE
:10430000CBF801212D4804F0C7F804212B4804F014
:10431000C3F88021294804F0BFF81CBD00F001015A
:1043200019B10221254A118302E00221234A518357
:1043300000F0020119B10121204A118302E001219C
:104340001E4A518300F0040119B104211B4A118354
:1043500002E00421194A518300F0080119B18021BB
:10436000164A518302E08021144A1183704700B538
:1043700000201DE0124931F81010124A12569142E5
:1043800004DA0121814019438BB202E0012181400E
:104390008B430B4931F81010491C89B2084A22F8A6
:1043A0001010142902DB002122F81010411CC8B2A1
:1043B0000428DFDB1846FFF7B1FF00BD0010024004
:1043C000240200202002002030B58BB00025D44C00
:1043D00001A803F0D6FE08A805F0E3F903A806F04B
:1043E0001CF8012C01D8012004E0CE48844200D9F9
:1043F00000E0204604460121082004F029FE0121A6
:10440000022004F048FE0121084604F044FE012188
:10441000152004F05AFD0C20019002208DF80800B0
:1044200003208DF8090000208DF80A0001208DF886
:104430000B0001A9BC4803F0F9FD02221146BA485D
:1044400004F008F902220321B74804F003F9B74841
:1044500000684008B0FBF4F0401E85B242F21070D4
:104460000990ADF820500020ADF82800ADF82200EA
:1044700008A9AF4805F00AF96020ADF80C0000204B
:10448000ADF818000120ADF80E004FF47A600590E9
:1044900003A9A74805F068FE0821A54806F031FAEF
:1044A0000120ADF80E004FF47A60059003A9A048F2
:1044B00005F022FF08219E4806F04FFA01219C4892
:1044C00005F069FB01219A4805F051FC4FF4D440F6
:1044D000019002208DF8080003208DF809000020CB
:1044E0008DF80A0001208DF80B0001A9914803F016
:1044F0009DFD012209218F4804F0ACF801220B2117
:104500008C4804F0A7F801220D218A4804F0A2F893
:1045100001220E21874804F09DF884480068B0FB12
:10452000F4F0401E85B242F210700990ADF82050B0
:104530000020ADF82800ADF822008DF82A0008A967
:104540007D4805F0A3F86020ADF80C000020ADF820
:104550001000ADF818000820ADF81A004001ADF8C1
:104560001C000020ADF81E000120ADF80E004FF435
:104570007A60059003A9704805F041FC08216E4857
:1045800006F04BF94FF47A60059003A96A4805F0EC
:10459000FEFC0821684806F07EF94FF47A60059029
:1045A00003A9654805F0E0FD0821634806F0A9F974
:1045B0004FF47A60059003A95F4805F09DFE08213D
:1045C0005D4806F0CAF901215B4807F07CF901213A
:1045D000594805F0E0FA0121574805F0C8FB4FF4AF
:1045E0004070019002208DF8080003208DF809002A
:1045F00000208DF80A0001208DF80B0001A94F481A
:1046000003F014FD032208214C4804F023F8032290
:1046100009214A4804F01EF844480068B0FBF4F051
:10462000401E85B242F210700990ADF82050002073
:10463000ADF82800ADF822008DF82A0008A94048FE
:1046400005F024F86020ADF80C000020ADF8100053
:10465000ADF818000820ADF81A004001ADF81C00B4
:104660000020ADF81E004FF47A60059003A934488D
:1046700005F07AFD0821304806F043F94FF47A60DE
:10468000059003A92E4805F037FE08212A4806F0B8
:1046900064F901212A4807F016F90121284805F09C
:1046A0007AFA0121264805F062FB0BB030BDB0F963
:1046B0000010890001F57A611F4A1164B0F90210F7
:1046C000890001F57A61D163B0F90410890001F520
:1046D0007A619163B0F90610890001F57A6151633E
:1046E000B0F90810890001F57A61114A4032116071
:1046F000B0F90A10890001F57A61121F1160B0F952
:104700000C10890001F57A610D4A40321160B0F950
:104710000E10890001F57A61121F116070470000C8
:1047200000093D0000BD01050000024050020020CC
:10473000000C004000100240000001400008024050
:104740000004014000B587B005A803F01AFD02A8D7
:1047500006F03BFF0121022004F07AFC0121042035
:1047600004F0B3FB1D208DF8040002208DF8050035
:1047700001208DF806008DF8070001A800F0F7FF72
:104780008020059002208DF8180003208DF8190074
:1047900000208DF81A0002208DF81B0005A95D4845
:1047A00003F044FC022207215A4803F053FF532030
:1047B000594908800420ADF808000A20ADF80A0025
:1047C0000120ADF80C000020ADF80E00ADF810008F
:1047D00002A95148283806F012FE01214E48283817
:1047E00005F0C5FA012204214B48283807F0DAF811
:1047F00007B000BD10B548481838008800F0040024
:1048000000B34FF6FB704449183908804FF6FF306B
:10481000088040481030006800F0800090B93E48A1
:10482000283806F07EFF3D49088008460088498800
:10483000401A84B22046FEF74AFD384800883749BE
:10484000488000BF10BD00B587B0684603F099FCF2
:104850000121202004F01FFC0121042004F035FB7D
:1048600047208DF8080004208DF8090001208DF8FC
:104870000A008DF80B0002A800F079FF082207213A
:10488000244803F0E7FE8020009002208DF8040009
:104890008DF8050001208DF8060000208DF8070036
:1048A00069461C4803F0C2FB1D4803900020ADF888
:1048B00010004FF40050ADF81200C010ADF8140015
:1048C0000020ADF818000420ADF8160003A9154823
:1048D00007F05BFF012240F22551124808F0F1FB7E
:1048E0000121104808F09AF807B000BD10B540F259
:1048F00025510C4808F00BFD58B140F225510948EC
:1049000008F090FD0748001D0088C4B22046FEF75D
:104910000CFD10BD00080240280400402C020020BD
:10492000A0860100001401403EB50446012120206C
:1049300004F08EFB1E4804F0CDFD01945320ADF829
:1049400000000020ADF80800ADF8020069461848E4
:1049500004F09CFE0121164807F02DF901221146B2
:10496000134807F01FF80121114805F000FA002153
:10497000202004F06DFB3EBD08B537208DF8000007
:1049800007208DF8010001208DF802008DF803004A
:10499000684600F0ECFE08BD10B54FF47A70FFF7E2
:1049A000C3FFFFF7E9FF0121202004F051FB10BDF8
:1049B00000140040704710B58AB0044606A807F0FE
:1049C000C8FF0121102004F066FB0121084604F015
:1049D0007CFA25208DF80C0003208DF80D000020B6
:1049E0008DF80E0001208DF80F0003A800F0BFFE27
:1049F00007220921FE4803F02DFE07220A21FC4868
:104A000003F028FE4FF40070019002208DF808009A
:104A10008DF8090000208DF80A0001208DF80B00A8
:104A200001A9F34803F002FB4FF4806001900220DB
:104A30008DF808008DF8090001208DF80A0000208B
:104A40008DF80B0001A9EA4803F0F0FAE94807F0F5
:104A500037FE06940020ADF81C00ADF81E00ADF83E
:104A60002000ADF824000C20ADF822000020ADF8A5
:104A70001000ADF812004FF40070ADF814000020E3
:104A8000ADF8160006A9DB4807F07FFE04A9D94857
:104A900007F06BFF012240F22551D64808F011FBC8
:104AA0000121D44807F0BAFF0AB010BD70B5054621
:104AB0000E4600240AE0295DCF4802780078401CA9
:104AC000CD4B1870CD488154601CC4B2B442F2DBA7
:104AD000C848808900F0800028B9012240F227717F
:104AE000C44808F0EEFA70BDC5490A780978491C37
:104AF000C34B1970C349885419460978642902DBED
:104B000000211A461170704710B510E0BE490A78AE
:104B10000978491CBC4B1970BA49885CFFF759F9F0
:104B2000B9480078642802DB0020B7490870B4480F
:104B30000078B54909788842E8D110BD10B5AD4874
:104B4000008800F0080010B1AA488088C4B240F282
:104B50002551A84808F0DBFB50B140F22551A5488B
:104B600008F060FCA3488088C4B22046FFF7BCFF71
:104B700040F227719F4808F0CAFBA8B1A34801780A
:104B80000078401CA14A10709C48405C994988807C
:104B90001046007898490978884205D1954880895F
:104BA00020F080009349888110BD10B58AB004467A
:104BB00006A807F0CEFE0121480404F049FA0121BD
:104BC000082004F082F926208DF80C0004208DF8CE
:104BD0000D0001208DF80E008DF80F0003A800F0E5
:104BE000C6FD072205218A4803F034FD072206216D
:104BF000874803F02FFD2020019002208DF8080047
:104C00008DF8090000208DF80A0001208DF80B00B6
:104C100001A97F4803F00AFA4020019002208DF894
:104C200008008DF8090001208DF80A0000208DF899
:104C30000B0001A9764803F0F9F906940020ADF8BD
:104C40001C00ADF81E00ADF82000ADF824000C20CB
:104C5000ADF822000020ADF81000ADF812004FF4BE
:104C60000070ADF814000020ADF8160006A96948E0
:104C700007F08BFD04A9674807F077FE012240F298
:104C80002551644808F01DFA0121624807F0C6FE6C
:104C90000AB010BD70B505460E4600240AE0295D35
:104CA0005D4802780078401C5B4B18705B4881546B
:104CB000601CC4B2B442F2DB56480C30008800F0ED
:104CC000800028B9012240F22771524808F0F9F912
:104CD00070BD53490A780978491C514B19705149E4
:104CE000885419460978642902DB00211A4611709C
:104CF000704710B510E04C490A780978491C4A4BB6
:104D000019704849885CFEF7C8FF47480078642856
:104D100002DB002044490870414800784249097884
:104D20008842E8D110BD10B53A48008800F008006C
:104D300018B13848001D0088C4B240F225513548EA
:104D400008F0E5FA58B140F22551324808F06AFB04
:104D50003048001D0088C4B22046FFF7BAFF40F279
:104D600027712C4808F0D3FAC0B130480178007898
:104D7000401C2E4A10702948405C2649091D0880B5
:104D80001046007824490978884207D121480C3020
:104D9000008820F080001F490C31088010BD10B53C
:104DA0008AB0044606A807F0D4FD0121880404F067
:104DB0004FF90121022004F088F827208DF80C001B
:104DC00002208DF80D0000208DF80E0001208DF8D6
:104DD0000F0003A800F0CBFC07220A21144803F0BF
:104DE00039FC07220B21124803F034FC22E00000BA
:104DF000000002400010014031020020580C002049
:104E000032020020580D0020330200203002002022
:104E1000000C02400044004035020020BC0D002080
:104E200036020020BC0E0020370200203402002091
:104E3000000402404FF48060019002208DF80800C9
:104E40008DF8090000208DF80A0001208DF80B0074
:104E500001A9FE4803F0EAF84FF400600190022037
:104E60008DF808008DF8090001208DF80A00002057
:104E70008DF80B0001A9F54803F0D8F8069400203E
:104E8000ADF81C00ADF81E00ADF82000ADF8240010
:104E90000C20ADF822000020ADF81000ADF8120093
:104EA0004FF40070ADF814000020ADF8160006A90C
:104EB000E74807F06AFC04A9E54807F056FD01221F
:104EC00040F22551E24808F0FCF80121E04807F0E3
:104ED000A5FD0AB010BD70B505460E4600240AE0D7
:104EE000295DDC4802780078401CDA4B1870DA48FB
:104EF0008154601CC4B2B442F2DBD5480C30008847
:104F000000F0800028B9012240F22771D04808F053
:104F1000D8F870BDD1490A780978491CCF4B19706F
:104F2000CF49885419460978642902DB00211A46C2
:104F30001170704710B510E0CA490A780978491C09
:104F4000C84B1970C649885CFEF7FCFDC54800785F
:104F5000642802DB0020C3490870C0480078C149BA
:104F600009788842E8D110BD10B5B948008800F032
:104F7000080018B1B648001D0088C4B240F225519F
:104F8000B34808F0C4F958B140F22551B04808F0D0
:104F900049FAAF48001D0088C4B22046FFF7BAFFA7
:104FA00040F22771AA4808F0B2F9C0B1AE480178C2
:104FB0000078401CAC4A1070A748405CA449091D09
:104FC000088010460078A3490978884207D1A04894
:104FD0000C30008820F080009D490C31088010BD05
:104FE00010B588B0044604A807F0B3FC0121C8043A
:104FF00004F02EF80121084603F067FF34208DF8F5
:105000000C0003208DF80D0001208DF80E008DF8A6
:105010000F0003A800F0ABFB08220021934803F027
:1050200019FB08220121914803F014FB0120019093
:1050300002208DF808008DF8090000208DF80A0084
:1050400001208DF80B0001A9884802F0EFFF022033
:1050500001908DF808008DF8090001208DF80A00F4
:1050600000208DF80B0001A9804802F0DFFF0494B6
:105070000020ADF81400ADF81600ADF81800ADF83A
:105080001C000C20ADF81A0004A9794807F07DFB3C
:10509000012240F22551764808F013F801217448A6
:1050A00007F0BCFC08B010BD70B505460E460024E4
:1050B0000AE0295D6F4802780078401C6D4B18703B
:1050C0006D488154601CC4B2B442F2DB68480C30B5
:1050D000008800F0800028B9012240F2277164485E
:1050E00007F0EFFF70BD65490A780978491C634BEA
:1050F00019706349885419460978642902DB002134
:105100001A461170704710B510E05E490A780978A8
:10511000491C5C4B19705A49885CFEF711FC5948D0
:105120000078642802DB0020564908705348007854
:10513000544909788842E8D110BD10B54C48008820
:1051400000F0080018B14A48001D0088C4B240F2BF
:105150002551474808F0DBF858B140F22551444842
:1051600008F060F94248001D0088C4B22046FFF7ED
:10517000BAFF40F227713E4808F0C9F8C0B1424872
:1051800001780078401C404A10703B48405C384928
:10519000091D08801046007836490978884207D1F1
:1051A00033480C30008820F0800031490C310880F1
:1051B00010BD10B588B0044604A807F0CAFB012151
:1051C000080503F045FF0121042003F07EFE0121C4
:1051D000082003F07AFE35208DF80C0001208DF8B0
:1051E0000D0000208DF80E0001208DF80F0003A89F
:1051F00000F0BDFA08220C21244803F02BFA082203
:105200000221234803F026FA4FF480500190022037
:105210008DF808008DF8090000208DF80A000120A3
:105220008DF80B0001A9194802F000FF042001903D
:1052300002208DF808008DF8090001208DF80A0081
:1052400000208DF80B0001A9114823E00004024062
:105250000048004039020020200F00203A020020C0
:10526000201000203B0200203802002000000240F5
:10527000004C00403D020020841000203E0200202F
:10528000841100203F0200203C0200200008024060
:10529000000C024002F0CAFE04940020ADF8140095
:1052A000ADF81600ADF81800ADF81C000C20ADF8F4
:1052B0001A0004A94C4807F068FA012240F225516F
:1052C000494807F0FEFE0121474807F0A7FB08B058
:1052D00010BD70B505460E4600240AE0295D43481E
:1052E00002780078401C414B187041488154601C82
:1052F000C4B2B442F2DB3C48808900F0800028B997
:10530000012240F22771384807F0DBFE70BD3949B1
:105310000A780978491C374B19703749885419465F
:105320000978642902DB00211A461170704710B514
:1053300010E032490A780978491C304B19702E491F
:10534000885CFCF71FF92D480078642802DB0020F8
:105350002A49087027480078284909788842E8D106
:1053600010BD10B52048008800F0080010B11E489C
:105370008088C4B240F225511B4807F0C8FF50B1E5
:1053800040F22551184808F04DF817488088C4B2FB
:105390002046FFF7BCFF40F22771134807F0B7FF24
:1053A000A8B1174801780078401C154A10701048C1
:1053B000405C0D498880104600780C490978884285
:1053C00005D10948808920F080000749888110BDF7
:1053D00010B5FFF799FBFFF78CFCFFF7ABFDFFF76C
:1053E00092FEFFF7A4FF10BD0050004041020020D4
:1053F000E811002042020020E812002043020020B1
:10540000400200201CB5684602F0BBFE01210420CA
:1054100003F05BFD01208DF804008DF807000020EB
:105420008DF8060002208DF80500402000906946A6
:10543000124802F0FBFD4021104803F02DF81CBD7E
:105440001CB5684602F09DFE0121042003F03DFDDD
:1054500001208DF804008DF8070000208DF806006B
:1054600002208DF80500802000906946034802F074
:10547000DDFD8021014803F00FF81CBD000802404B
:105480001CB5684602F07DFE0121082003F01DFDD9
:1054900001208DF804008DF8070000208DF806002B
:1054A00002208DF805004FF47040009069461448C2
:1054B00002F0BCFD4FF47041114802F0EDFF1CBD3D
:1054C00010B50446C4F3C0024FF400410C4803F089
:1054D00012F8C4F380024FF48041094803F00BF83E
:1054E000C4F340024FF40051054803F004F804F0FF
:1054F00001024FF48051024802F0FDFF10BD000090
:10550000000C02400648804706480047FEE7FEE7D9
:10551000FEE7FEE7FEE7FEE7FEE7FEE7FEE7FEE763
:1055200005560008890100080CB500200190009084
:105530007648006840F480307449086000BF7348C2
:10554000006800F4003000900198401C0190009821
:1055500018B90198B0F5A06FF1D16C48006800F45B
:10556000003010B10120009001E000200090009870
:10557000012846D165484030006840F080506349BA
:10558000403108606248006840F48040604908602B
:105590005E48083000685D490831086008460068C8
:1055A00040F4004008600846006840F4A0500860DD
:1055B0005848091F0860081F006840F08070091FE4
:1055C000086000BF5148006800F000700028F9D062
:1055D00040F20560504908604C480830006820F0EF
:1055E00003004A49083108600846006840F002009C
:1055F000086000BF45480830006800F00C0008282B
:10560000F8D10CBD10B54548006840F4700043491E
:1056100008603E48006840F001003C4908600020F6
:105620003A4908310860394800683D49084037491F
:1056300008603C48091D0860081F006820F48020AD
:10564000091F0860002031490C310860FFF76CFF2A
:105650004FF0006031498039086010BD70B50020FE
:105660000022022300240221284D08352D6805F070
:105670000C0020B1042806D0082834D107E02A4DB8
:105680002A4E356033E02A4D284E35602FE01F4DFD
:105690002D1D2D68C5F380541C4D2D1D2D6805F062
:1056A0003F0154B1224DB5FBF1F5184E361D366859
:1056B000C6F3881605FB06F209E01B4DB5FBF1F5B4
:1056C000124E361D3668C6F3881605FB06F20F4DDE
:1056D0002D1D2D68C5F301456D1C6B00B2FBF3F564
:1056E000124E356003E0104D104E356000BF00BF14
:1056F000064D08352D68C5F303150E4E705D0B4D34
:105700002D68C540094E356070BD0000003802406C
:105710000070004008544007003C024088ED00E063
:10572000FFFFF6FE103000240024F4005002002099
:1057300000127A005402002010B50446B4F5E06F60
:105740000BD0B4F5C06F08D0B4F5A06F05D0B4F598
:10575000806F02D0B4F5407F00D103E073215F4831
:10576000FAF71CFD5E4820435E49086010BD2DE934
:10577000F0410446002500270F26E07810B1E078BC
:10578000012800D103E087215448FAF707FD60782B
:10579000102800DA03E088215048FAF7FFFCA078CF
:1057A000102800DA03E089214C48FAF7F7FCE0788A
:1057B00018B34C48006800F4E060C0F5E060C0F346
:1057C0000725C5F10400C7B22E416078B840C5B2C4
:1057D000A078304005432807050E434821784554FA
:1057E000207800F01F0101208840217849118900AC
:1057F00001F1E021C1F8000109E0207800F01F016B
:105800000120884039492278521141F82200BDE830
:10581000F08170B504460D46B4F1005F02D0B4F1DA
:10582000006F00D103E0B1212C48FAF7B7FC3048F3
:10583000854200D203E0B2212848FAF7AFFC2D4997
:1058400005EA010020432749091F086070BD70B5B3
:1058500004460D46102C03D0042C01D0022C00D19C
:1058600003E0C4211D48FAF799FC0DB1012D00D1C8
:1058700003E0C5211948FAF791FC3DB11948001D14
:10588000006820431749091D086006E01548001DFF
:105890000068A0431349091D086070BD10B5044697
:1058A000042C01D0601D00B903E0DC210B48FAF79D
:1058B00075FC042C08D14FF0E020006940F0040092
:1058C0004FF0E021086107E04FF0E020006920F090
:1058D00004004FF0E021086110BD0000F8DD000871
:1058E0000000FA050CED00E000E400E080E100E0DB
:1058F000FFFF0F0080FFFF1F10B50121080203F01A
:105900008DFC00214FF4807003F088FC10BD2DE960
:10591000F04105460C4600260027F748854205D091
:10592000F648854202D0F648854200D103E0E921DD
:10593000F448FAF733FC206858B12068B0F1807F52
:1059400007D02068B0F1007F03D02068B0F1407F1D
:1059500000D103E0EA21EB48FAF720FC207910B1EE
:105960002079012800D103E0EB21E648FAF716FC84
:10597000607910B16079012800D103E0EC21E148A1
:10598000FAF70CFCA06858B1A068B0F1805F07D0AE
:10599000A068B0F1005F03D0A068B0F1405F00D113
:1059A00003E0ED21D748FAF7F9FBE068D8B3E068E7
:1059B000B0F1807F37D0E068B0F1007F33D0E0688D
:1059C000B0F1407F2FD0E068B0F1806F2BD0E0685D
:1059D000B0F1A06F27D0E068B0F1C06F23D0E068CD
:1059E000B0F1E06F1FD0E068B0F1006F1BD0E0684D
:1059F000B0F1106F17D0E068B0F1206F13D0E068FD
:105A0000B0F1306F0FD0E068B0F1406F0BD0E068BC
:105A1000B0F1506F07D0E068B0F1606F03D0E0687C
:105A2000B0F1706F00D103E0EE21B648FAF7B6FB93
:105A3000206918B12069B0F5006F00D103E0EF21B3
:105A4000B048FAF7ABFB207D012803DB207D10284E
:105A500000DC03E0F021AB48FAF7A0FB6E68AA482F
:105A600006402179206840EA012006436E60AE6856
:105A7000A6480640D4E903100843A16808436179A9
:105A800040EA41000643AE60EE6A26F47006207DCF
:105A9000401EC0B2074346EA0756EE62BDE8F081F9
:105AA00000210160017141718160C16001610121CA
:105AB0000175704770B504460025206818B320684A
:105AC000012820D0206802281DD0206805281AD07F
:105AD0002068062817D02068072814D020680928D5
